:0200000460009A
:1020000000000420C12D00601B2F00601B2F00600A
:102010001B2F00601B2F00601B2F006000000000C2
:102020000000000000000000000000001B2F006006
:102030001B2F0060000000001B2F00601B2F0060A2
:102040002021090326311820ABBEF9E792000122B6
:102050001C0D1002401C401B0852150C1214085293
:10206000120C12110852110C121008520E0C120D03
:102070000832294910011C401A0822510C1002C0D4
:102080001B40060852520C12070852560C120B083D
:10209000525B0C214852630C12180852640CC3198D
:1020A000000152106C120F0852130C2198521B0C95
:1020B000217852140CD2133C520F1821B032281C34
:1020C000321C6052506C12050852530CD2083C521C
:1020D0005C1821F852620C12170852650C217852D4
:1020E0006A0C121F0852166C2540520A0C1209087D
:1020F000322558231C402052220C21A85220242192
:102100003C521F0C121E08522A2421E0524F60122A
:10211000040852540C215452570C120C08525D0CF6
:10212000251452610C216C52660C214852690C2115
:1021300060221D0C116C25F4521A0C251452190C36
:10214000258C23230001490452210C216052270CC5
:102150002124524B542107524E0C12030852550CA5
:10216000250452580C2928525E0C21FC52600C2583
:102170002C52670C219052680C21A421AC2190C3F1
:102180001D0001520118210732261C361C985224CA
:102190000CD21530524C542138524D0CD2022452DC
:1021A00059182928525A0C293C525F0CD21430225B
:1021B00031104A80E8217C2190257452050C25B00D
:1021C00052020C217852030CF339020001522F8481
:1021D000216C52320C2D6C0352330C29D052340C2A
:1021E0002934520B84259852180C21BC520C0C2116
:1021F0002052040C21B052060CF321050001523686
:10220000782154522E0C215452490C25DC52350CA5
:10221000219052300C216C520D782198327B7C4DEC
:10222000740452091821D852080C21F052070CF3FB
:1022300021060001522C7825A452480C29705247DF
:102240000C299452430C253452390C2928327970C8
:102250004D5C04527C0C2D2C0452780C21C8527712
:102260000CF3390C0001523B84251452410C297C9B
:1022700052460C2DF003524A0C2D5804527A84F227
:102280002E0F84327E40360C2CF107015242782901
:1022900058523C0C251452400CED9C03523718F553
:1022A0000B205271C025E052720C25F4526B0C21A8
:1022B00007527D9C2107527F0CFD0B6C03523A782C
:1022C0002514523D0C2DE004523F0C2DF0035245D5
:1022D0000C2D240552380CF20A0D54526D902178C1
:1022E000526E0C29F4526C0CF32D010001522D8416
:1022F0002160523E0C2D4C0552440C2DC005522B32
:102300000CF10B6B5270902D6C0352740CF3750929
:102310000001526F902D880452730C2DEC035275FE
:102320000C2D2C0452760CF25E0BB4F309E08A04F7
:1023300052FF01F20052141D70071D45061285045C
:0F23400012690412A7042EC155060001A4781FCC
:10240000BFF34F8FBFF36F8F0020DFF81415086004
:10241000BFF34F8FBFF36F8FDFF80805016851F4EA
:1024200000310160BFF34F8FBFF36F8F704710B45F
:102430000020DFF8F4140860BFF34F8FDFF8EC04DE
:102440000168C1F34E32C1F3C900030043F6E070E6
:1024500010EA421050EA8370DFF8D444206018007C
:10246000431E0028F2D11000421E0028EBD1BFF31A
:102470004F8FDFF8B004046854F480340460BFF375
:102480004F8FBFF36F8F10BC7047DFF8A814096837
:10249000080010F0030FF8D070472DE9F0415FF00D
:1024A000FF30DFF890140860DFF88C140860DFF864
:1024B0008C140860DFF888140860DFF8881408605E
:1024C000DFF884140860DFF884140860FFF7DDFF8C
:1024D00042F20100DFF8781408605FF4E810DFF8DA
:1024E00074140860DFF87004DFF870140860FFF7F8
:1024F000CCFF0020DFF8681408600020DFF86414C7
:1025000008600020DFF8601408600020DFF85C1429
:1025100008600020DFF8581408600020DFF8541429
:1025200008600020DFF8501408600020DFF84C1429
:1025300008600020DFF8481408600020DFF8441429
:1025400008600020DFF8401408600020DFF83C1429
:1025500008600020DFF8381408600020DFF8341429
:1025600008600020DFF8301408600020DFF82C1429
:1025700008600020DFF8281408600020DFF8241429
:1025800008600020DFF8201408600020DFF81C1429
:1025900008600020DFF8181408600020DFF8141429
:1025A00008600020DFF8101408600020DFF80C1429
:1025B00008600020DFF8081408600020DFF8041429
:1025C00008600020DFF8001408600020DFF8FC132A
:1025D00008600020DFF8F81308600020DFF8F4132B
:1025E00008600020DFF8F01308600020DFF8EC132B
:1025F00008600020DFF8E81308600020DFF8E4132B
:1026000008600020DFF8E01308600020DFF8DC132A
:1026100008600020DFF8D81308600020DFF8D4132A
:1026200008600020DFF8D01308601020DFF8CC131A
:1026300008600020DFF8C81308600020DFF8C4132A
:102640000860DFF8C403DFF8C4130860DFF8C013C4
:102650000860DFF8C0130860DFF8BC130860DFF81B
:10266000BC130860DFF8B8130860DFF8B81308601F
:10267000DFF8B4130860DFF8B4130860DFF8B013B4
:102680000860DFF8B0130860DFF8AC130860DFF80B
:10269000AC130860DFF8A8130860DFF8A81308601F
:1026A000DFF8A4130860DFF8A4130860DFF8A013B4
:1026B0000860DFF8A0130860DFF89C130860DFF8FB
:1026C0009C130860DFF898130860DFF8981308601F
:1026D000DFF894130860DFF894130860DFF89013B4
:1026E0000860DFF890130860DFF88C130860DFF8EB
:1026F0008C130860DFF888130860DFF8881308601F
:10270000DFF884130860DFF884130860DFF88013B3
:102710000860DFF880130860DFF87C130860DFF8DA
:102720007C130860DFF878130860DFF8781308601E
:10273000DFF874130860DFF874130860DFF87013B3
:102740000860DFF87003DFF870130860DFF86C03CF
:10275000DFF86C130860DFF86C03DFF86C130860B7
:10276000DFF86803DFF868130860DFF86803DFF854
:1027700068130860DFF86403DFF864130860DFF8AB
:102780006403DFF864130860DFF86003DFF86013A8
:102790000860DFF86003DFF860130860DFF85C03AF
:1027A000DFF85C130860DFF85C03DFF85C13086097
:1027B0002120DFF85813086047F6A810DFF85013FF
:1027C000086040F63170DFF84C130860DFF848030A
:1027D000DFF848130860DFF84803DFF848130860A3
:1027E000DFF84443DFF8440320602120DFF8401382
:1027F0000860DFF84003DFF8401308600220DFF8CC
:102800003C1308600020DFF838130860DFF83463F9
:102810005FF000473760DFF83053DFF8300328609F
:10282000FFF733FE3760DFF82883C5F80080FFF735
:102830002CFE3760C5F80080FFF727FE3320DFF855
:10284000141308603760DFF810032860FFF71DFEDF
:10285000DFF808032060BDE8F08110B5DFF8000361
:10286000016851F470010160DFF8F8120A884FF630
:10287000FE7002400A80DFF8F0120A884FF6FE7000
:1028800002400A80DFF8E4120888400704D50A886D
:102890004FF6FB7002400A80DFF8D4120888400728
:1028A00004D50A884FF6FB7002400A80DFF8C402A4
:1028B000DFF8C41208604FF6FF70DFF8C01208603E
:1028C000DFF8BC02016831F0800151F020010160A5
:1028D000DFF8B0020168C90703D50168490849005B
:1028E0000160104C2068800301D4FFF789FD206847
:1028F000C00301D4FFF79BFDFFF7CFFDFFF7CDFD30
:10290000C046C046DFF88002DFF88012814203D063
:10291000DFF87C02016002E0DFF87412086010BD8D
:1029200050EF00E014ED00E084ED00E080ED00E009
:1029300060EF00E068C00F406CC00F4070C00F40F7
:1029400074C00F4078C00F407CC00F4080C00F4063
:1029500030800D4000810D40400D010014C00F403B
:1029600014801F4018801F401C801F4020801F4083
:1029700024801F4028801F402C801F4030801F4033
:1029800034801F4038801F403C801F4040801F40E3
:1029900044801F4048801F404C801F4050801F4093
:1029A00054801F4058801F405C801F4060801F4043
:1029B00064801F4068801F406C801F4070801F40F3
:1029C00074801F4078801F407C801F4080801F40A3
:1029D00084801F4088801F408C801F4090801F4053
:1029E00094801F4098801F409C801F40A0801F4003
:1029F000A4801F40A8801F40AC801F40B0801F40B3
:102A0000B4801F40B8801F40F910010004821F40AD
:102A100008821F400C821F4010821F4014821F40FA
:102A200018821F401C821F4020821F4024821F40AA
:102A300028821F402C821F4030821F4034821F405A
:102A400038821F403C821F4040821F4044821F400A
:102A500048821F404C821F4050821F4054821F40BA
:102A600058821F405C821F4060821F4064821F406A
:102A700068821F406C821F4070821F4074821F401A
:102A800078821F407C821F4080821F4084821F40CA
:102A900088821F408C821F4090821F4094821F407A
:102AA00098821F409C821F40A0821F40A4821F402A
:102AB000A8821F400400001000002F4024050300DE
:102AC00008002F40240503060C002F401B00008047
:102AD00010002F401B00008214002F401B000084B8
:102AE00018002F401B0000861C002F402100009082
:102AF00020002F40190000A024002F40170000A83C
:102B000028002F401B0000A92C002F4030002F4030
:102B100004002F4040002F402229650044002F4030
:102B20002009010048002F404C002F40080A215086
:102B300080002F408888880084002F4094002F4018
:102B400098002F4090002F409C002F400F005AA566
:102B50000C005AA5A0002F400A005AA5090A2150CE
:102B600088ED00E008800B4008000D4000800B401D
:102B700000000D4020C528D904C00B4008C00B4000
:102B800000C00B4010E000E00020006000000000EA
:102B900008ED00E001680A680A4482604B6813444B
:102BA000C3600831016070478168C268914209D1F1
:102BB00001680B68CA188260D1F804C06244C26020
:102BC000083101608268521C826012F8010D704762
:102BD00038B504460D46A068E168884213D12068E4
:102BE0006168884208BF00F0CBF82168207C0A6841
:102BF00000B14A44A26010464A680244E2600831CB
:102C000090422160EBD0A068401CA06000F8015DFC
:102C100031BD2DE9F84189B000F1080100910A4663
:102C20000168490802EBC10300220292039201935A
:102C300000F108010268520801EBC203049300226C
:102C4000017901F001018DF8201040680499069285
:102C5000400801EBC0010591079200980199884254
:102C600003D06846FFF796FF71E005980AB0BDE80B
:102C7000F0810298039988420BD1009801680844BA
:102C8000009902904A6810440390009800F10801EE
:102C900000910298401C029010F8011D04A8FFF753
:102CA00097FF6D1EE5D1002C51D06846FFF77CFFE1
:102CB0000746C6F38100032804BF6846FFF774FF88
:102CC000049D0699079E07EB002707E03F1A083D81
:102CD000A5F10800016840680E18314655F8080C47
:102CE000081AB842F2D37F42A41C0F442FD0B74237
:102CF00006D155F8047B55F8040B3E18B742F8D0BE
:102D00000698079917F8018B884219D104980599FC
:102D1000884208BF00F034F8049801689DF820004C
:102D2000069110B101EB09000690049906984A68D3
:102D30008118049A02F10803884207910493E5D0B0
:102D40000698401C0690641E00F8018DCFD10298B1
:102D5000039988423FF481AF6846FFF725FF064696
:102D600016F0030503D16846FFF71EFFC51C3409A2
:102D70000F2C96D16846FFF717FF00F10F0490E77C
:102D80000120FFF75DB930B4002513E050F8042BA3
:102D9000D30744BFA9F101039A18091F042942F877
:102DA000045BFAD213468C0744BF15809B1CC907ED
:102DB00048BF1D7050F8041B0029E7D130BC704794
:102DC00072B612481249016012480268124B02EAB8
:102DD0000301016008214FEA014209214FEA015332
:102DE00042EA0301026841EA020101600B480168FE
:102DF00041F0070101600A480A4901600A6882F34C
:102E000008880948804762B60848004744C00A401D
:102E1000FFAAAA5538C00A40FFFF000040C00A4080
:102E200008ED00E0002000605B2800600F2F0060CC
:102E300010B5074979441831064C7C44163404E037
:102E40000A68081D114488470146A142F8D110BD07
:102E50002C0000008C0000004EF68851CEF20001DC
:102E6000086840F470000860BFF34F8FBFF36F8FA6
:102E70004FF00070E1EE100A704700000BFFFFFFFB
:102E8000E8010000800900200000000087FDFFFF2E
:102E90000200000002000000855E0000FF0000004C
:102EA00000000000000400006BFDFFFF02000000B6
:102EB000020000006A000000FF5D00000004000046
:102EC000E18600004FFDFFFF02000000020000004D
:102ED0007CF1FFFF030300000000002080090000D8
:102EE000DFF800F09D630000DFF800F06F8A00005B
:102EF0000120C046002801D0FFF79AFFAFF3008001
:102F00000020AFF30080FFF7EBFFFFF7EDFFAFF31B
:102F10000080FFF7A1FFFFF7EBFFFFF7FEBF3200D6
:102F2000014001F0BF0001D2800821012002C052FF
:102F300094EE20100348204E51BE089003F86467B9
:102F4000BCBC202002208133ED20200280B3DB14A2
:102F500020A002506706A3202002D0E9DCEB20204D
:102F60000208C3925920A00280B0D3B8202002707A
:102F7000F98FEA202002C0A5102820B002E8BFC0C7
:102F8000B0202001284CE920200260134B4220B0E1
:102F900001C03D2040300250FA10E84020015FF6A9
:102FA0002B20B002905C71A7A03001FCDDE6202050
:102FB00001F8F15420B00218E9F6B9A02001C3B21B
:102FC000E520300170E43220A00250DB06B420205E
:102FD0000210EF8EE420300220F3625280A0012A1A
:102FE000879A202002B02272E3202002F0E8E05607
:102FF00020A00228352DBD202002000A5CE22020FE
:1030000002B0FA8E4120C00140AE6F203001564C14
:10301000E140200115CD5F20A00200141C9020206B
:103020000240BD42E020200230F9345720A002E0E7
:103030006C1E93203002E0F57DDE6034018A535E21
:1030400060A001DA77AA203402C09D81DCE0200173
:10305000FFA22620B4016057E260200260F98FDAF7
:10306000203401580A81E0B401F05F60603402004E
:1030700098A8D88020017A7F4520B401D05433E04D
:103080002002600FCBD6203002D091CB40E0A001CF
:103090006D1BA0202002A0FBF6D420340198C5CEE1
:1030A00040B002003A397EC02001FE2BD32034010B
:1030B000407387C0B40200926879003001C069D1C2
:1030C000A03001F16353E0A001438D7C20200280F9
:1030D000D85FCF203401181F83C0B002B03F42A296
:1030E00020300167FCCBC033FAFF40E00150E00D17
:1030F000E052C8E03635E0B7543360300200DC639C
:10310000C58033D6FF60B401003964A02002C0AD91
:103110002DC220340280A45915A0B001484BAB80C9
:1031200020011A0BBE20200250BF3C5A20B002A042
:10313000B364B620340104D6B7003001BBCF36E00B
:10314000B00176CEA820300132BBB12020012A0088
:103150004320C80128C60C4034019473A7003F2BBC
:103160003B6003B002C0E55DA5202001EE4397203F
:103170003401A0E6C3A0B00220958DB5201101ED69
:10318000F8037D00042012627573795368696674D0
:10319000203C3D20283078323055291C4025453AC6
:1031A0005C636F64655C5254313035325F4D494425
:1031B000495C4465766963655C64726976657273BF
:1031C0005C4D494D581F100A5C66736C5F636C6FF1
:1031D000636B2E683D2003696E646578505002363B
:1031E00000006469A114F12B5CF011226368616E28
:1031F0006E656C47726F7570203C202838552950D9
:1032000010016164634E2006696E7374616E6365BC
:1032100048200673697A656F6628731B5007426100
:1032200073657329202F2015A116F005265B305DEC
:103230002929000074440B63003020213D20636F76
:103240006E6669671AF00B26400C4000800C40FF48
:10325000FF100108015820015F65745CB4057472A9
:1032600069676765721C20204153534552542045BD
:1032700052524F52202220257320223A2066696C38
:10328000652022257322204C696E0AF412296422DB
:10329000200A0000216279706173735874616C4F69
:1032A0007363A8113B400F0040787D0180F0FA0263
:1032B00000E1F50540597307F8F20B6854300775C3
:1032C00074696C69746965734B140464656275672D
:1032D0005F2A3002736F6C6553453C2594110D10C5
:1032E000106B5374617475735F53657269616C4DD3
:1032F000616E61FA10085F53756363657373203DF7
:10330000283120AD0703F7240101B8400265646D40
:103310006180597C255B1B33320520017463649204
:1033200022301C2009282875696E7433325F742995
:103330001750082620307831465529203D2045F386
:10334000412F912CF003036E6578745430116B1685
:1033500064A531307005737263416464726CA002BD
:103360006465737411122821200357696474683EE0
:10337000123145B0017C7C2014F2023214F2023486
:1033800014F30231361512333E11642175F10065D4
:10339000B115F2033215F20334157168B1163169B3
:1033A000200F7472616E7366657242797465732062
:1033B00025206208100645616368526571752E65A7
:1033C00021F521C85407666C65787370692E635CBB
:1033D000FD399404FD044804FC02026770696F49DA
:1033E0000481174D4A04F12178214249901001705F
:1033F000696E737B3332E51003801B4000C00410FC
:1034000003001C400040042E005804F008211A015B
:103410001E001A020C031E016C476C703240010042
:1034200000730C36483BE0035B315D000014F20290
:103430003214F2023314323414F54C7CF404026C6E
:1034400070756172747EA119F52780414425158C31
:103450000264617461DC0361083C0B2D3E6261759E
:1034600064526174655F427081046C0328342920C2
:103470003EF60510072D3E74784669666F5721F0B9
:103480000300726D61726B20E2722031011F4018DF
:103490002806110412C004170019E0110412800458
:1034A00012C00417001AE8F00F2818051C000C00C1
:1034B0001801020306031A050E0600DC6DF3046D05
:1034C0002803410821B912451945C721961E78A83D
:1034D000036108472D3E0E810C4E53A905310112A0
:1034E0002CB0EF2C404005F103A050074578616DEA
:1034F000706C655C650850046961725C2E2E03FD7A
:1035000012A90529146004202564200000B8FE15C6
:1035100000740651FB1402616461707939F4E5D8D6
:10352000F9046C324C38424137295A99723C0B4CA1
:1035300050554152545F54797065202A3708F20281
:103540000031E25B608B5D005CF804156C656E67B2
:10355000746804FD37540393010001222F0D1207F4
:1035600002100100147F02201400242A7F2A120076
:1035700062640813230036495522500000050324D5
:1035800010011C224107100141221C2A1004083E90
:1035900008140008061208131FA0601C0E21011D4C
:1035A000830B110B100E002010080402003E51493D
:1035B000453E0000427FBB101F4261514946002139
:1035C00041454B31001814127F10002745454539FD
:1035D000003C4A4949300001710962100C364949E2
:1035E000493600064949291E000036E21D580D21C2
:1035F0000623081478221401217E301414080002D6
:103600000151090600324959513E007C1211127CC9
:10361000007F3C10053E41414122007F05321C12D3
:10362000100541007F0909090118100349497A0072
:103630007FA3127F42127F4E10032040413F0112B0
:10364000215B137F4001300A007F020C027F007F64
:103650000408107F48323E3C12060C100151215ED6
:103660000C10031929460046541E3166081E7F6956
:1036700008123F3610053F001F2040201F0C123853
:103680000C100A631408146300070870080700EFA1
:1036900020014543008B10020000552A02117812C8
:1036A000417D200504020102040040011586110B32
:1036B0002010002054545478007F48444438003887
:1036C00044444420061002487F003818100A1800AD
:1036D000087E0901020018A4A4A4E410060804044A
:1036E000780000447D3B10024080847D5F240110FF
:1036F000284492256210017C04181E327C24214843
:1037000010073800FC2424241800180532FC181077
:103710000108004854100D2000043F444020003CA4
:103720004040207C001CC0121C0C200430403C0097
:1037300044284F300A1CA0A0A07C004464544C4490
:103740001401FD39C805F17D484E734A0A5F0090A7
:10375000100312020429E715947D6004F1376C5CB4
:103760000377726974655705FD14AC043E73F50A5E
:103770004F5F6DF60A3DAC043C016275668E056DC7
:1037800030046DFC046C0272656164B2056DD00496
:10379000413F8DC80541107E43950CF11B841F707D
:1037A0006F35055D1107E158F100941C036A6C74D4
:1037B0007A4C71111C0DB40020DFF804120860BFB0
:1037C000F34F8FDFF8B203140668C1F34E32C1F332
:1037D000C964100A43F6E07010EA421050EA8370A0
:1037E00026100C4220601800431E0028F2D1100061
:1037F000420823EBD1361029BFF36F8F10BC7047FE
:1038000038B504000D00FFF7D5FFDFF8BC211460C8
:103810002800C0B25060DFF8B4110878002807D142
:103820000120084613A8111E30060102F09EFD314A
:10383000BD70322022DFF8A401AA210170AA214123
:1038400070EF2181700221C1700471457100260062
:10385000221100C9B2062905DA082010415C8E1930
:10386000521CF5E786710721FFF7C8FF70BD723063
:1038700001DFF85C60100109D120705001AA280511
:103880006850075C0104705CE00878011A12AF1AF6
:1038900032021A1003440144704F1A52021A3003C4
:1038A000F12805DA031A100328018470421A300146
:1038B0000328101A300332280CDA041A1001100100
:1038C000C4062402F8000470301003EC1008702EB7
:1038D000281007042817D1DFF8E420108010051203
:1038E000D01078401E102612D094200CE0300578BD
:1038F0002B441C7103785B1C037020100116D1054A
:103900004A121336300305280ED1005617A4101E94
:103910002011000A78024414710978491DC9B200C7
:10392000F004F801E01E651E15061321088C20081E
:103930002A00D2B2521E904205DA0E1409205C868B
:1039400019491CF2E73000291A1419214411F80111
:103950001CC0B288421BD12078AA2802D16078AF5F
:103960002800D014E0A0001207F8100D04F007FBA7
:103970002079012801D120790228A0FC1005A07827
:10398000102804D1313E1403A078FFF73A4E1003FB
:1039900084ED00E0800410035C0B00203C04124026
:1039A000041003EA090020E90412E8041280042C40
:1039B000026CEF00E0F80612B40C65FC140750F03E
:1039C0000101DFF86C2211EC600A6C120A6852F4F3
:1039D00080320A607047201801DFF8545610033116
:1039E000F48031012212440C90034908490001225D
:1039F00025545A34844132122C26700351F400317C
:103A00000114A150320C50211E213A83FC113A4B73
:103A10007047D252F014F80209DFF8E801D2FB0532
:103A2000D041D2A80ADFF8AC01046854F480340411
:103A300060E2415C72945C638401D84110F20A7CBC
:103A40006CFF0D68413E03100D010001F0FF000006
:103A5000F1804010F57C200048F0141B4C320B0024
:103A60001B1213F01F039A401040091211F01F019E
:103A7000C8402A100B3E480068C00601D53D4801E9
:103A8000E03D0C11C21016B53C48FFF7C9FF0028F5
:103A90000CD13A4800F0FAFE0621B0FBF1F43816DA
:103AA000300FD3FF401CB4FBF0F008E0FFF7E2FF5B
:103AB0000400332A4114100510BD10B5FFF7E016BD
:103AC000200C230001225FF4E131012001F069F8AC
:103AD00018300D1F4C2068800301D5FFF72EFF2002
:103AE00068C00A30146AFFFFF7FFFE24482449012A
:103AF000602449254A0A60254A026008134B0304E2
:103B0000100B0B60132303600A601422026022165C
:103B10001222161222162108110E524A1621081CD2
:103B2000034808600420F0031002FEFFF711561C42
:103B300002E5FE10BD881319A81224041A50901231
:103B4000140869BC126010127404180770820D40CA
:103B500000366E01ECA8100B242600800D0010002A
:103B600024E007809C241E10B81312A0081C0339FF
:103B700000100311AA0D123B081E1211091C073375
:103B8000000306210003031557061223081003162D
:103B9000002020172012310C3C071800E08129007A
:103BA0000803F894031802C4F38566EC14080604AD
:103BB000F0FF0141180968C482762382100C9143FA
:103BC0002200121212F01F0215FA02F21C100D331D
:103BD00027003F1217F01F07BB401A401143361051
:103BE0000F0280180160212E09D340F27A32DFF8EB
:103BF000241604A0190600F084FDAFF30080202EE7
:103C000005D0DFF818060068F040C007F9D4F1BD10
:103C100076F333F40576129F7613B01504900205FF
:103C200000F04976C3A4057620100F0025002DB2C0
:103C30002D0A260036B216F01F06072D3E12C13E91
:103C400012703E12783E322A3E111010080500EB29
:103C5000850001680322B28C1E3AAE0412B27618B7
:103C6000010160F1221DAA071E21A7072EB21C0622
:103C70001C0510BDDFF8481508FE031D0C043108B3
:103C80001C1110B41300DBB2002B07D0C1F30B439F
:103C90001B181B1D5F7A0340021C6006E0104308DE
:103CA00033102D26034002090B09032E100B03D0FD
:103CB00043680B43436002E043688B082148120BC2
:103CC0001AB01F042B0CDB446803238B4034EA0337
:103CD000031400E4B214F003048C401C4344600B52
:103CE000E04468071A52071A215C1C0230B4846849
:103CF00090051F341CF9041013DBB29B0613F080EF
:103D00006323431500EDB253EA0543836030241C5E
:103D100007F8B54FF40040FFF7A1E4062F9004A484
:103D2000042DFE036D8E041011DFF88004FFF78F61
:103D3000FF002000F0DCFC00F00DFD010A1003FC88
:103D4000FCDFF8402C1C04090A090251F0930A1107
:103D50002814015C4401121C02FFF7D7FE1E051057
:103D600002540121280C12D10C124C2830054909AB
:103D7000490151F01328100B400400680028FAD5BF
:103D80000021DFF8385C100BFAFE4FF48870FFF763
:103D900055FF4FF484081C0351FF40F2161E031216
:103DA0004D10120610124910120E10100145FF039B
:103DB000321208321001E1FE010A12040A12DC3C40
:103DC000128A2412372C128B08100133FF182A1084
:103DD0000130FF1A06122D141286142329FF2E20FB
:103DE00004D803FFF7C5FE7412D40A300785FE40DD
:103DF000F20260FFF71B1C12C41232B71C12C00A79
:103E000012771C12041C320D1C12B01232A91C12A3
:103E1000AC0A226938115C32FF82129C12329B1C60
:103E200012980A125B8C12807012F108128108122B
:103E3000ED0812820812E9081283081C03E5FE044B
:103E400021DC8004100382FE0221DB082343FEE60E
:103E500012DA0E12D90E12770812D8081238621030
:103E6000071250FFF7CEFE0321D510126B6A12D451
:103E70000812676812D30812282012142012BE20DC
:103E800012D010125B2012CF0812572012CE081247
:103E9000182012162012AE2012CB10124B2012CA7C
:103EA0000812472012C908120820120678129E969E
:103EB000120296129A10120A1012962012C22012A2
:103EC000330812C10827F4FD7410018BFE1206108E
:103ED0000188FE1006100185FE140612825012BAE7
:103EE00020121FB012B9081403E0FD4FF4A32E10E6
:103EF0000176FE1C1E100173FE0C0612705C128C03
:103F00005C266C2E200230FFF768741108126408DA
:103F1000121A9C126008120E34125C6C12A9441022
:103F200003F9FD0021A80813BAFD8C112812506472
:103F300012A5101003EDFD0321A4081003E9FD05EF
:103F400021A30812AA20120E4012402012A0101025
:103F500003DDFD07219F0812D928129E08129A201E
:103F6000120220123020129B1012CD20129A081239
:103F7000C920129908128AAC124098122020129679
:103F80001012BD2012950812B920129408127A88D6
:103F9000129308480276FD9248B410010160910A1C
:103FA000100131F0700A19EE1DD00D1E511A084D86
:103FB0001E035260084004F81151F490110C338034
:103FC000710843F0801C22F0102406814E0022006C
:103FD0002130009C30010022030A12130A32060A23
:103FE000120E0A32080A12090A320A0A6304FE3261
:103FF000121F0A1D9E0322510C3001EBFD708C43F1
:1040000080515C1200081E6CF006200A4BFB00F089
:104010006EFB6B4E01226B49281C05C1FD6A4F38AF
:104020006830D403333860081002003860663A1DE7
:104030007C0811326C0400F05EFB6448E6038006E5
:10404000396821F0404139601E300355FB01225D83
:104050004810019DFD5C28600289088900F4412414
:10406000310811F0100100F02E2C32542C70018711
:10407000FD53621401032151443C01D4FC000204AD
:1040800012D008124E1016075C2D1E041C05C8FC29
:104090004B484C490844051C0300C00F4038B60F7C
:1040A00012200412480C1274081268082DE006123F
:1040B000F0045C03FFFF00FBC0F4061C09186C0051
:1040C00080143900140C00086F0E1C0A084014EA12
:1040D00000041468008010E08A141D04071E1C10E0
:1040E00007100424EB00801C300812F00810023185
:1040F00000803C101F3C69DA0912FA04126418129D
:10410000790810036E008028E604213410026A004A
:10411000802C0C222C0C11601328F60412F00C11C8
:10412000241C0438F30780383242061002E207806C
:1041300020682D68072D74071338EC4412F7081017
:1041400003EF008030F90411341330740411181394
:1041500030E904126744110812281C1F20737A19D1
:10416000100620008060810D4060D8100300C00A56
:104170004014042E80B6101006800D400D00700013
:10418000701C12700C32A0101EE0F10721081E20D6
:10419000990A10020D401872F41EFB4C1B140246C3
:1041A000C3237C10FD05BC063E07BC0618018E49E2
:1041B0008F0A2FCEF9B806FF0B8D48B6065E03B600
:1041C000061ED8B6064DDE0C1208441D3E05100230
:1041D000728049814432AC44120442B001406A32D8
:1041E000221003977278497822329B22100B206AA2
:1041F0000121A9400840E84032BD0A64300F002A7E
:1042000004D0426C52F40052426403E0426C320A21
:104210004C027047C06C460D10120025032D06D2CB
:10422000694850F82500A04201D06D1CF6E7121035
:1042300004D3352265496656327056232800741E11
:10424000056A141007002C06D142225E49601C52F8
:10425000621C1D2E051004FF5D4931F9100A10275C
:1042600099FF696C11F46041A079C00210F4C0504C
:10427000E279120212F440721043227A12F0030221
:104280001043627A520112F0600A1005A27A92007D
:1042900012F00C0A1C01014320B80C2B01D0FE3394
:1042A00020790A4002F01001E0141DB60362A01E3E
:1042B0003008616964AA6C32F04102601230035226
:1042C000F0400260303C0552F00102AA64314A0815
:1042D00021A410039022354937A43210A41C050BE9
:1042E000250026270032C20C1C08380004F07EFB93
:1042F0000120607173091D620D12600412A0041286
:10430000E00412201412A0041004E07103202072B3
:104310001C3C04720220A072F11E0D15E13C08261F
:10432000606C800405D50120066408100DFFF74F6E
:10433000FF0220E064A06C50F08000A00820020082
:104340000606D518100351FF8007F7285205281ECE
:1043500028040B2301D110210E12421E92011E1CB3
:104360000108FF30660D4C02002803D0A8072C037B
:1043700024FF280070780A19905E887C0312E408F4
:1043800012D0041F9C09B11E1104121C04129004C7
:1043900012A8046D8C081C1104D1836C33F0200327
:1043A00083640EE0436C33F440430C7808300DA472
:1043B0000314F4404423431A004264836C53202DB9
:1043C00082081C050000D30702D501A2081C044383
:1043D00060930703D5F80822330C525316700183FB
:1043E0006013161E83F2084D220E5A16741403B47D
:1043F000723049305E2761F85E1E16880430133033
:10440000004008002805D0022829D015D3032839F8
:10441000D04BE008D8901007D1282000FB05F020F1
:1044200044806A0005000D05E010F3000C3A26D226
:10443000C0261110F3000C2726C3006B261110F3C1
:10444000000C1426D2402611102E0CF40E1403FF7B
:10445000E770BDB03C1DD4046200DA100533002AB9
:1044600000210002D61C05A6FA00BEFDE7001C1DB7
:104470002C02DFF86403D80C1C0602D5DFF86003B9
:1044800002E04E0911101D1C0A1C0301090D081839
:104490003009100C0C10F0010070470A00120112D4
:1044A0000D10124D100D41164DA6032E284B121063
:1044B000010D0019481FF381071C2F02D1000D1DAB
:1044C00055043F2032FA033220B41C0208D099224E
:1044D0003C091213041DB4084FB5FFEA0A2C04FC72
:1044E000025FF080419E092405DC120968C903FAC5
:1044F000921E316A0E3D020F1C0BE4221268120458
:10450000FAD5016010BD015E0F1C03002904D11013
:10451000F60812D01E2303E00A12CC0A2DFE0A2E42
:10452000A0E40E3D2E06210E1C01BC22111407181A
:1045300005404103799B0313282F194378031C017D
:10454000116013940A1C05A4120B400178113C0A57
:10455000200C0B4353F40053136011680029FCD561
:10456000322124193A1D980E1E90420F1F70475891
:1045700009900250DFF8880CF200900C1C06F8B588
:104580002DED028B84B05D0A1E46B40A1C05121084
:104590002204F002FA620A1F72218C033C01FFF729
:1045A000621C031D460542E010400265FF06000A3A
:1045B000224D1A1009D03000EBE020000D381ED03B
:1045C000FA500211401A4808400200F0D5800A2231
:1045D0001812100201401A460832401A4381801214
:1045E000141700F0B880083800F0BE80C8E03868C2
:1045F00010F07F00464376083000C2C81402C401A0
:1046000090EDE21C0DEE906AB8EE601BB8EE400B28
:1046100021EE000B580A21181C0B1AB8EE411B8022
:10462000EE010BB0EE408B860F1601BC1D18031077
:10463000051620464301E01406100BBCEEC80B1013
:10464000EE100A861930009B4E1268222DD60330D8
:10465000011620002010013000901630016C110866
:10466000762A0548F10670F2005070615C603205F0
:10467000FB06063000096811F4C011002903D0B10F
:10468000F5002F02D003E0800801E04008FFE74773
:10469000490A6845490A40B2F5004F04D043498AA7
:1046A0004203D11C600251E041497CF3033F487A48
:1046B000F3273B48781329491C1D9E081001B1F1CE
:1046C00080788002B1F1404F781C0115E026FC0F84
:1046D000100110F003782F68465406E4060CE0231E
:1046E000480AE01748202D00031C0504B0BDEC0269
:1046F0008BF2EC04AD440F1E3C7803122C041E58C0
:1047000084071254041250041274201278041E10EC
:1047100080072DA407100380EFFFFF30081250041C
:104720001260042D98072DB0071280043290243EA9
:1047300080C4072DC00712B00412C0042DC4074F57
:10474000780AA4203E70CC061C0B43F22156002DA3
:1047500007D140F26D1266EE062DF20A2D78031095
:1047600009002C07D14FF4B7726149621432EF147B
:104770001E223C062804604803F0F2FD961C035FED
:10478000F0FF3420A6054C022DE9F0413E041E1F27
:1047900031092C105FF00008B84511DA2868401C78
:1047A000802805D32968D0051D0211200520286026
:1047B00028682654181016286018F10108EBE7BD88
:1047C000E8F0812DE9F14F88B00E00170098468C73
:1047D0002C0355684648492003100D72F8CDF800A7
:1047E0008001969DF820008DF80A041C011870388D
:1047F0002604100A01281CD1684607905FF01C0AA5
:104800006C193E1C06F8904C465A465146C1171C7E
:104810000AF013F8C9F81090D9F8100039C8092324
:1048200004A90A2C0203F00BFD100720020ED1157B
:10483000E0421E026C031DCC07310C32030C100B3E
:104840002CE028002AE04FF4157225492CEE32782E
:10485000EE400219F11401401F20FDA80610082D9A
:1048600007D04FF418721D49232252672252182292
:10487000323A62100707D040F26B2214491B2246DD
:10488000564610012009B0E61C068F0EB42DE9F83B
:1048900041A00204270026221005802100226D4637
:1048A000283A1C07BAFF27AD104B6A4629040518A1
:1048B0000501F0B3FC070039362D280E22213A1CE1
:1048C00003015DF810FBE80615B412880412CC044D
:1048D00013080A2B18020B0000F42812100C12D82F
:1048E000142C0E692B0000EFF3108072B670478015
:1048F000F31088AC061C0905000E001400202E08D9
:10490000D3525605131814041D960E560ADE2C01B8
:1049100008D1536C054E14B60E23FFFC161714F085
:10492000C21D860512541A1EE886053003F005FFE5
:10493000F7F21A200C20687101294411F580510802
:1049400060A0880C500541F204028852E00C120667
:104950000C32A024500541F208028850E00C120CE1
:104960000C4320690C12100C43A08A0C22143C51F9
:104970000C22163C51241218241F41F2481B4007F8
:104980002172012A441152A18B0843E08B20121E90
:104990002C500170BDF8DC321FDE12DEAE123CAED0
:1049A0002E3CF20E62FCDE12DF16122416122C16BA
:1049B0003290165217DE12E01A120C1A30039406C7
:1049C000FFF7831A1E3A6E055C0A7001284410F541
:1049D000805000F034F844111F2C0916032F89125F
:1049E00078061D62161E02340E95261A090E1FC582
:1049F00072960F111C40038407FFF75E7A1F202078
:104A0000241512A00812E0041DFF1B1320E004135C
:104A100020610C12820C11041004A0610820A083F4
:104A20000C5F8310721632166A10014FF4DC4E12BE
:104A3000744E12786AB2376A100140F2B9181258EF
:104A4000041660AC42296A222D3412DD341240185B
:104A5000124834321D1872163412BB181224041670
:104A6000ACC6320F1C1C09286820606868206128C9
:104A70007A00980A101AE060697A11F00701084379
:104A8000E0806889A080A889A0822869A060686900
:104A9000E082042C0D83002E07D0A661A18B4FF677
:104AA000F77001408C0A4FA18304181D060C3D9835
:104AB0001216AD4A1EC060184404C001FFF7DEFBA9
:104AC000001401690121A810111C02895AC1F3C008
:104AD000110843E16AE940490011F0026812610CD3
:104AE00012890C12040C1E32380423FE4F4C2C0E7B
:104AF00017001E00DDF83080DDF83490DDF838A0B6
:104B00007A041C0540F2653259495C480342B258A8
:104B1000132D0814180266325449B4400208FFF7F6
:104B2000A716222E16100167324F1616F084329CFB
:104B3000161411012F10D0022F0ED0042F0CD010FC
:104B40002F0AD0202F08AC10015A72452612D02609
:104B50003289261009B8F1010F14D0B8F1020F11F3
:104B6000061001040F0E061001100F0B0614012091
:104B70000F083E10016932393012A43032713028EA
:104B800006BAFBF9F009FB10A042100340F26A32AA
:104B9000321E12881E32621E1C02182001909603DB
:104BA0001C1090A346009A0199584603F0CEFD666A
:104BB000602560C48E04213A100360613800013A18
:104BC0001D04191C0CD004280AD010280BD0202852
:104BD0000CD00E0206100320720BE0010610010833
:104BE000E00206100105E00406100102E00506F0EF
:104BF0000207FFE7404636326036326036326036B2
:104C000032603612603618019DF83C0412033810E9
:104C10000B05D008D30CE0A4F80C8067810836306F
:104C200003A0816781041011421F81FF82051C01CE
:104C3000F78F104C04124C041D8818130088041DB3
:104C4000AA0435984D00031EBD7C141EA430151E09
:104C5000802E036BECFA7A100140F2BE18128C1809
:104C6000128C1832E0182C05A068217C49010846F6
:104C7000031F56E046132C022AD1B08B0E0B1106EF
:104C80001C090602D441F2ED30CCE00023600A1882
:104C9000017CA068AE2EFEE803F01603A168227C1A
:104CA00052011144A268237C5B011A44125A52F04B
:104CB00008020A52181202181C010020AA2E171C02
:104CC0000B8AFD804694F9130094F914104086195C
:104CD0001C0105DB4032051C0C83FD41F2EC309ACF
:104CE000E094F91290E07C7B0F60057419F1010AE1
:104CF0005046262D62092004824684F812A02E1CFC
:104D0000036CFD484640740A100902D0B9F1010B4A
:104D100002E0207DB0082004E068494649B2C61090
:104D20000FFFF7FDFD00222900E0684B465BB25BF8
:104D30000118128327FE202004E1684A4652B2A4DB
:104D40001801898B51DEA381831C52521C100381F0
:104D5000614846596812498050033AD0E0685922A8
:104D60001C07808B30F0080050F0105E2081168008
:104D7000028783B06958140188421C4212502823CC
:104D8000B08308212C12B70A1EC0620D5EB19603D3
:104D90001EB14A042321E03661721001884206E800
:104DA0001217142DA4076002002012E0984402009C
:104DB000EB01027C1C09F1FC607D000604D5207C1F
:104DC000102E041C08A168C8760020BDE8F28F6888
:104DD0000D4E0B0C0C4D92041F8A62401C1D2206C6
:104DE0001E8476043EEE440E25D88305D1389723E1
:104DF000E0F62C0155607D060E10016075A87C1050
:104E00000916D0FFF7B6FC0600A068C0221EC8E451
:104E10001628010AD4A80A13D5A8C2A17C2DA41172
:104E20002FA5FC48086FF84376051003BE42DFF853
:104E3000307A120C7A4EB1D40F127C2C2277801D5E
:104E4000461C11061C0506D000230122615E087075
:104E5000032568A8475F881D440680010147580E56
:104E60004C121C01465A16F08006F6B2F609E068AC
:104E70003F1A3D006D096C0E140A01D0A84609E0E6
:104E8000002D03D02800FC1B08033A32140A140931
:104E90004046C0B294F9111000B209B8AB0CD16C05
:104EA00022020E1C01900FE0C6075001090CE02AF7
:104EB000200990B0EB0909B9F1000F03D54410089F
:104EC00019EB000984F81180E07C181D211921B02C
:104ED0001C0307D04B46328C1021B24004D4F8009A
:104EE000C0E047862302D0DA1C040877BDE8F183CE
:104EF000F00E15804C0410B5DFF81C43180F1C038E
:104F000048FD400704780D1E08720D3003FFF76E50
:104F1000FF1016523D161C05F002006CFFF7632EC1
:104F20001121344FE8423C0F522E1E1001D4024092
:104F300034300154FF11165223161001BC024034C4
:104F40005249343001B442021E52141E1001A00214
:104F5000803430013AFF121652091610018802807F
:104F600034522F342F8042A8111D1C1742FC1E10F2
:104F7000016C02C034300120FF131652EF161001ED
:104F80005402C03452153430014C42041E52E01E0B
:104F9000300738020069FFF706FF141652D5164095
:104FA000062002006DFFF7FBFE3430011842051E9B
:104FB00052C61E1001040240343001ECFE15165298
:104FC000BB161001EC01403412E13456683C30014C
:104FD000E041062252AA221001CC0180383001D0D3
:104FE000FE1616529F161001B401803852C56C305F
:104FF00001AC41071E52901E10019801C0343001CF
:10500000B6FE1716128516100303D56048C032523B
:10501000AC3230017841081C32771C2C0259480010
:105020006AB816321814326D1450055448006EFFD9
:10503000F7943030014841091C325F1C10014D4883
:105040004030300186FE1914325514100148484092
:1050500030627CFE33410A1C32471C1001414880FB
:105060003030016EFE1A14323D1410013C4880307D
:1050700032643030013A4C0B1A32301A1001364883
:10508000C02E300157FE1B1432261410013148C0C7
:105090002E324D2E30012F4C0C1A32191A2C022AA6
:1050A00048006BB816321C14320F14300525480026
:1050B0006FFFF7362E3001234C0D1A32021A100101
:1050C0001F48402E300129FE1D1423F8FB14100147
:1050D0001A48402E321F2E3001184C0E1A32EB1A8D
:1050E00010011348802E300112FE1E1432E11410FC
:1050F000010E48802E32082E30010C4C0F1A32D48B
:105100001A10010848C02E3001FBFD1F1432CA14CA
:1051100010010348C02E1403F1FD10BDB8E02E1499
:10512000FC0A1002800E40C40C12D40412E4041EC7
:1051300048911312B0045E10C0064C0C02698A43F9
:105140000261704742690A4342610A0B111F140B46
:105150002640F60A000440002C29D02005522406DF
:10516000F65930060013E0205E13F65A0C30010D9C
:10517000E0A00C125B0C1C0107E0C5DC083C05102C
:10518000120BA0FEF77188101E21C4102D501B1C9D
:1051900001D5F8BCB80510010100C5085001D5F8CB
:1051A000B80C3C01B80030B0122DA02B6D24142D8A
:1051B000400D30074E7273497348FEF74F4420028A
:1051C00040F66B01461EAE0E0D2C012060313A0DEB
:1051D0002E47CA0A1D4C0420070AD5F814904946E8
:1051E000C9B2201EA6F81D1C03002C11D0304805A2
:1051F00030010ED0317A23D4FF0E200406D073691B
:105200002200121C01D6F8104404200CADE05FEA25
:10521000896047D53068022844D1901C01C0F383CF
:10522000771610038046B068414E2C04B0EBC10FD6
:105230001CD3F8061E50AA0441121009410F0CDAC3
:105240007068011D716051102C0405EB8101D1F8CB
:1052500034171E1A2E0773EBE738600300B060178F
:10526000E03A1EB16C171F491C0C05F209D23A1C1A
:10527000010020B03C0A1F50F0231F2005615FEAA7
:10528000C97011D50E1D15104261C27273C2830020
:1052900022C210035FEA49604AC01C03012847D1BB
:1052A000B028052744D06241C6E0040700B0683941
:1052B00000C6C33900C66300688E6002C1F8800171
:1052C000C6F3113900C6F1033A61C61240B81D8019
:1052D0000D1C028780B5043E181E048A0A14032898
:1052E000FF01BDD8D91E141B093A9488FF0B2A4030
:1052F000F8161401414942FA3752FEFAFD18F81621
:105300006D140C2D2C062D140E4C0200F06FF87647
:105310000B1C01002506A616BE2FA616111210049E
:10532000D339222B492B6A321D6A2DA61652F84416
:105330002D46035C01E2FF2596161C0DCAFF0127CE
:10534000616917FA05F081436161303C16400E0532
:10535000D16068AF4030EA0707676008E072787094
:10536000230AF816300307436760B2122D8A1372BE
:10537000F19812207210036B220E4911723EE44C18
:105380000E4DC8061D16082E687617400488432067
:105390006004E00C12080C140170BD28304F1C0D85
:1053A000C41512E80812A00412640419F91300DCF1
:1053B000082C1EF0B40C000126C56916FA01F39DF5
:1053C00043C561102902D210F10C0502E010F11062
:1053D00005103C801E1E01AE1E10133DD3032B1E74
:1053E000D00CD3052B33D029D336E02E68032723E6
:1053F0001C400E5B009F40BE432E602DE02F685F77
:10540000F0030C1440061CFA03FC37EA0C070E10DC
:10541000019E403E22D21C3472020C211EB20D1E8F
:1054200021123C0B04E0C3698E401E43C661FFE7B6
:10543000F030165DFE0C2C0669C00709D5194A101C
:105440000E0927D016921C0610200012689047D42F
:10545000BA24211C52141C92111C180531BD80B5B0
:1054600001210F4A1ADC4A100380B502210D0C32CB
:10547000D60C100103210B0C32D00C34020421098C
:1054800048AE1D50041A9C6812980412B4042AB045
:10549000741D5329130040041280041EC06B29AEF2
:1054A0006A661525AC23F6FF7825B8232A4A7623A9
:1054B00004E00C32260C1A316E2C01264C608E084A
:1054C0001D64091C01D37220CC103401FEF701C603
:1054D0001001616821763EDBB00750011D4CA0240D
:1054E0001003DB7217491C243EEF400E1001A16827
:1054F0001A2432C9245001144CE0241003E3720E24
:1055000049152432DD241001E168132432B7244008
:10551000020B4C2069241003EB7205490E2432CB98
:1055200024100121690C2412A5241A0C0412E0D8BD
:1055300012DC0412C8041248102003004039405CF9
:1055400008200280394070082002C039408408FCDD
:10555000010D003A4024212E94D60F300203FEF7AD
:1055600098661D9C0CFE130376032D24213F816851
:10557000C40B1F6081BC1C21086D181A1C02092D68
:1055800007D2BC078E0374031C05F5E7092D08D369
:105590007A1E0612386E12386E6F61FC78032DD2B7
:1055A0000E2DFC052DD20F100108D1EE241214246B
:1055B000121C245E4F46111D3E0E13D1EF181EFC27
:1055C000980F12081842431810047A052808DBF1D6
:1055D0001812E4185C01F402FE001032601812F296
:1055E000183ECC82103001FEF72B181D400A2E8089
:1055F000800A1C030020ADF8003E061C09040BBB0A
:10560000F1210F36D220680B701D1EB640242DF0FC
:10561000044F80B27219510C33FB0B1A200A01900F
:1056200001992068091A0F0021681863401C1AF0BC
:105630000401091AB9420BD2162F0F001A051006E1
:10564000B84503D3B846D946721FA01B2A0D2C03B8
:10565000C5E7206864CC241C0CF10320414341457C
:1056600002D240F22150A04A131C04FFF761FF024E
:10567000906226100402029930F911102348FF1697
:105680001C034DFF2A69B96A0F1C0604D3B9F1083F
:105690000F01D2901B1C033232F0F852800D100C17
:1056A00000000610F0F8500243520B5203BDD41C08
:1056B00010C004C00C10432861286930F000502845
:1056C00061A969E8131C160101402079E37B1B02E4
:1056D00013F4E0631843A37B9B0013F00403183A10
:1056E0001B1E606C271E086C272D500B1D1C221CD6
:1056F000016107E0F01D1E6188047D481B1C03A9A1
:10570000612B6933CC171007E079400310F4005087
:10571000185E200F607A227A52EA0042EA62A86A92
:1057200050F08800A8081C02F44040A8F80C1C198E
:10573000CC2152F0004252F44042686A94F80DC005
:105740005FEA0C1C1CF0100C94F80C74071C0A4E39
:105750001E1EF0200E5EEA0C0C5CEADA042C0162DC
:10576000A07A700F12684612080E72E00E22011C19
:105770003196114E10025201E03206100368691092
:105780004368D24F207CD01B50010021600A1C01CD
:105790008021A92A127C03BDE8FE8FF8801226061C
:1057A000FE1DB8283C03D400FEF72C6C109E14C8D4
:1057B0001B1C0202F09AFD1E262E3076122DBA1BFB
:1057C0007E60BE1B5E00BE1B1110110422E00C1295
:1057D0007314110412A00422E00C12741414047443
:1057E000F1BD02690B521C0140431A360930048294
:1057F0006A32F44032102C03731A43826244231E2F
:105800008248097E8248095216981E3F700312345E
:10581000981238984D00101C0130004666271C0D68
:1058200006D068690002FCD52078E861641CF46445
:105830001A1EA4BC034F980E00061FC40F23161196
:105840000412E010125C08126404126C0412840446
:1058500012A40412E8043C0780B51548C168164834
:1058600014B404500D01BDE8F8FFFF80B5104801E5
:105870006912480F14700780B50C4881690F480BF6
:10588000101C010848C156047207101DB6075002CB
:105890006A094803101C0300001F40E460041E084E
:1058A00064297D44309D40302F1C30C01A4D2A1E83
:1058B0001B02699A300602026103E00269320A2182
:1058C000FC10018AB006FE3E15581D1EEA72071E26
:1058D0002CCE043264F82DE404100506D1EB222608
:1058E0004928145E5A2411100506D1EC22224924BD
:1058F000123251122E28B40E1004D1ED221D49206F
:10590000143247143268143C01EE22186405323D0B
:10591000141C01607E011E1B2D48232E22E0112C39
:1059200003766868E060220F1C0AAEFF03000220C5
:105930000390686802900C28110410060090012260
:10594000296804A8741EFE40121C047604A920696C
:10595000FE880D1E20BA0C3C011DF801A4211E95E5
:105960006A0A14030AB070BDFC581E3C8927124411
:1059700004125C041264041270041C092DE9FF4F28
:105980008BB000240B9800122C1011451C0D9800B0
:105990002849D00C98D0E90001CDE90201DD041FAF
:1059A000002952101DBC2A400830202870641C2099
:1059B0000089E016120216200200F082800E2009F3
:1059C0000E9AD31702F01AFBCDE908341C19ABDD8F
:1059D000E908230E98C117A0FB028900FB03990177
:1059E000FB0299BAEB08007BEB76301C022909D543
:1059F00006C6052012F243FB43313253F10003CDBA
:105A0000E9062304E0303051F17612064252087E56
:105A10006008060128706D1C641CC5E7941200160E
:105A2000F2000094433FE0161DE41120012838D015
:105A30000C41922003F3FACDE904321192F20304EF
:105A4000921202921E030C271009D801D30A2A04CD
:105A5000D212F13006921C03070EE09DF8B1311D01
:105A6000B8031741201A13E0610610010A3871A02B
:105A70001004161853EB01074E318C322E9E3C0356
:105A8000C0E720000FE8171C072DE9F34F81B02D68
:105A9000ED0AEE1B540590469A4600260F5A1F1039
:105AA000986C1A400BAB9FED5F1BB4EE41ABF1EE6F
:105AB00010FABE1E7617221C0AADE002A8B0EE4A0C
:105AC0000B02F093FC861A2EBBDC051C0ED1450898
:105AD000D200EE108AB8EEC00B20EE0BBBCC1270D9
:105AE0000409F4E79FED4F40100819DBB6EE001BE8
:105AF0003BEE01CB281EAAD41A10021BB2EE0444BE
:105B00002004C1FCB4EE40CB22100D23DB9DED023E
:105B10000BB7EE002B30EE020B8D0CF001041AE0F7
:105B2000BE341C01A7FCB1141B2002B4EE4C0B3890
:105B300032073892BF3870030027574531901E8CCA
:105B40003C1B11A810029B51EC193C1C01E1FB020B
:105B50008F181C045FEAE879A8FBE615100EFB031A
:105B60001109FB021102F003FC41EC100B3C582D13
:105B70005A1B5EBD5A1B15B61412D583467FEA0B1D
:105B800004313401E004003034B0EE49CB2C481429
:105B900005761C7F1CCBE72E14126A0C2330008480
:105BA00012BD6E11362E1AD61D701D302313705281
:105BB0001C401C16E0002914D091FBF8F300930060
:105BC0009B08FB1313002B04D59B54121C54300369
:105BD000009B1900142E2FE8E7621B2F0A8B560535
:105BE0007200012D761A1C049AB0884693466C18F0
:105BF0001C0120069053081F2002C2151F8DF8EAD1
:105C00001915EC2C08CDE90A011A9F38788146D67F
:105C1000111C0D00F01683B9F1250F07D0012348A0
:105C200046022804100702A95846A04708E301329B
:105C30002DAC322206361C18281FD17F1C39782043
:105C4000290ED0232912D02B2907D02D2902D0309C
:105C50002909B215100956F00106EDE756F00206C3
:105C6000EA0610010406E70610010806E4061C0512
:105C70001006E1E77F1E01762E1C04DDE7002104FB
:105C800091802E1F91088803121D4E4182100C3006
:105C90000F0ADBB9F13A0F07DA04990A22101C0E39
:105CA0000002FB01010491EBE7B9F12A0F05D1D8FD
:105CB0003207200518F104080490E24A3006200853
:105CC00090DEE7062007D01C050600791C08782E18
:105CD0008E153200122308905C500324D1491C0811
:105CE0005C320D5C20040ADA079A0A235C20040364
:105CF000FB02020792DA30010600E8627208624392
:105D00000790183001DCE7496812D8081003481CD6
:105D1000017868E830056C290BD015E0400E1007BB
:105D200003D056F04006401E01F8300120060B1645
:105D3000326C164280165006F4807600E0401E4712
:105D4000E21C01640F1B88151001690F1806100171
:105D5000660F15061001460F12061001780F0F0688
:105D60001001580F0C0610016F0F09061001620F89
:105D700006061001700F03062004750F40F0E48141
:105D80003E32023E1C0D70D1F0050AD518F107080D
:105D900038F00708D8A003600818F10808CDE90C0E
:105DA0000106E0C223C11710269DB61F900A4214B7
:105DB0001C050CA910A8FFF77BE21B100510A828F2
:105DC000440690DD1E1DF21D1FD52D6C051C036DB4
:105DD0001C0DE0B01410322B0C100107E0700C32D7
:105DE000200C2D402116034E14050590300714D5C4
:105DF00003521A061C8B03981C1DDC2240059004DC
:105E00009B5B1B3022101C010498056E102002F0D1
:105E10000711D416522016F1073A120518F3030998
:105E2000D11E252021EE6002460F6CD1EA20029897
:105E3000ED000BEA30078DED0E0B079B0A220ED406
:105E400072B9D4129D184C059FED052BB4EE42E0BB
:105E50000351DE6F11E01203F181E63658E2167845
:105E6000E2238080081D6E063D6C03F505E2960A6C
:105E7000E24DBE0345E21F1023B828350E678AFCA9
:105E80000E41D01C031DD5F00612E62361BA313055
:105E90001D8609F0060B582200E078220123E21249
:105EA0001FE2A0061DD4F00600D5AD1CE8F1195282
:105EB0002002F00614D5FEF31111D1302BAD1CFCDD
:105EC0003A08FC3A05FC2900F40217750F4CD10C76
:105ED00021403C0103D108DE042310E0481E03A446
:105EE00032210E12090E1D4C0333D1100E30010267
:105EF000E00A08453C64029DF805303E67EBFB3E36
:105F0000E402300708D510160710B605F21206DCB9
:105F1000130DD0062D2A3415DC6002069802781A7B
:105F2000A008401E0690F1E7F00769D53212628A98
:105F30007C01630F0D6A049805C0B2099001230922
:105F4000141251227001730F47221C018246BA9C21
:105F5000051C0146D09D90042DAA0712078A100542
:105F600003E0504602F0F6AEE1924126100112D055
:105F70009A3E1E00481B1004012D09DB01230E422E
:105F800020202DE40C40086D1EEFE70798451B0C00
:105F9000E026E308D02212F2B8B20DB8CF06E01422
:105FA000063C057F1CE3E402981B0E082DCC0A8CEE
:105FB0000608484168094840689A0A1C010348815C
:105FC00050125001806802121DB81413201C0423C3
:105FD0008010301D2E081D7E251FC5FCB40A1D2013
:105FE000432F806944322D20251D98212DA80E7E37
:105FF00061EC0F3D84263C072472B449B448FDF798
:106000001FC40F1E1552193C01E07631F4281E8280
:10601000C40E1C0B8269110504D440F61201114014
:10602000021C091F012372223F231926252C02037B
:10603000D0C0691C231C0901E0C069C0B27047C907
:10604000B20930194C02D0F80C0152102D50271C07
:10605000061B010344C3F80C2154202FB59CBE221B
:106060002C010205D5BC2C2C06D3FFC0B2FCF7F8DE
:10607000FC503321D252971C2DB82C32C51C72EA29
:106080001C52921C3E911610211C52DC1C4C02101A
:10609000B58D4CE6181C01C1FFC076174301220ED6
:1060A0004FC2FFC81812B616120816410E4C08B798
:1060B000FF82480188491C0180B21852A71E410E78
:1060C0005001A8FF7C1E4D9C1852981E410E500195
:1060D00099FF751E217A2D9A1023724C181C0252BA
:1060E000FF8006EC0431243E52B210326C182C01B1
:1060F00046FF008E1631183246183266181E3AB620
:10610000284303D572323A18326018122E6E5F039C
:10611000D57E193118325A189222302322FF062CCC
:106120000419FF800404D5362D210E6318FF903228
:106130004E302C030AFFC00204DE2622110E320963
:1061400032100200FF80001442F03223FFFE0630BE
:1061500001F6FE00282300010E63F5FE46323E469E
:106160004001E7FE4046311E32E6323001DDFE409E
:10617000462380410E72DC323232322FCEFEDE27D1
:106180001E043C315EAC621A52CB222DB2122E2A72
:10619000A61266FED01001012127101001CEFE02CA
:1061A0002E3295C04C0601BD30B585B0234DDA23A3
:1061B00047224C765003FDF751FB000A2C0363FB8A
:1061C00004002812251D6A042F002144121C059D7D
:1061D000FE2200194968AC032C043CFA6A460521EA
:1061E000B8312C03AFFA05B030F4121D0803128C3D
:1061F000042E14F43D11044F1480FC3D5F1440F84C
:106200003D1DDA2B1E2630031228042E2AD00DAD98
:10621000FC4113C01E0820011F40201813003B380A
:1062200010010E40F44C1D62102D1C0C10082001B2
:10623000E042F6AF70704778B24DE41E1C0506D1FF
:10624000E1224C494C44035E7D6A20100506D1E2F0
:1062500022474949123274121009287B092806D3B3
:10626000E32242494514326A141C03434E287B56EC
:106270009A242DC00D1003E4223C49401A325D1AC5
:106280002DBC231F20F8DA0D4C0390287A012868D2
:10629000051E0468051001287A020E32030E4F0213
:1062A000E0CC063268222D52095207141C01070067
:1062B000A83C101701D0103110B0011100E81040B7
:1062C0000410002A6869467C1C02FEF7C7FED4044D
:1062D0001F2E0320281C03FFF78EFF033E281C01FE
:1062E000287B08C42B1E06F20D1FF8B5D2181D24FA
:1062F000231DC6211D4E0E10035312134913A45221
:106300000BE42D9C181EAAB81321144201143D76EB
:10631000211003551209490F143EF78C0E1E37EB5E
:106320002F1D86351004483B7850F823701EFE4E12
:106330000E2DAA261D0C3C1DC93516FC58123C0812
:1063400012440412C80412900412B8041D3227FE2D
:106350000D00A8132EF05C24300203FDF7C4661D67
:10636000BA1CFD18A8131C0270B4049CB4221C02B1
:1063700005260116380B1C0235430560B12A3C0284
:10638000D013607050343C07029C039D002C00D059
:10639000253C342D8E131D74311D3E341EDC3E34DD
:1063A000178843FE1C0190009451371F2205162ABE
:1063B0001E7C182412D8181378530432631C42969A
:1063C0001C2DAC1212CB1A1368730422831A2D8A67
:1063D00026411C2D942912BD1C1354930452A31C56
:1063E00042A01C1648FA8008AFFF41F2B00BCDF86E
:1063F00004B06A12146A33B1FF14916232A812C158
:106400005A629E14915212946E1FEC02662B1D521A
:10641000132C02E8426A46301B3005FEF70EFC6A78
:1064200046130A12090A32140A12040A32150A2CF7
:1064300004FFFB206850F4641A1E2064311C0380A2
:10644000102060323E38232FF816210E1EAE6E0348
:106450001E94D8061C0200F091F89D161C01F08EC7
:10646000F8F83E1002F08BF88106100188F8CF068C
:10647000100185F8A106100182F8C80610017FF806
:10648000A60610017CF8A806100179F83F06100155
:1064900076F8D3063273421F70F8EF2D1002F06DBC
:1064A000F8800610016AF8D906100167F8F10610A5
:1064B0000164F8DA06100161F8120610015EF8DBDB
:1064C00006325B66100158F820062F55F84004107C
:1064D0000152F88D0610014FF8140610014CF8A473
:1064E0000632496C100146F8AF063243601F83F84C
:1064F0009D25315C2DAC221C020100481EFC0F1EA4
:10650000D08E0F4C0900032AF7DA00BF521CFAE7BD
:106510009A2D20050826DFF8C85128FA2E406C284D
:106520001D5E321D74281E01F4331EE45E2E2F46BC
:106530001EA6181C0117D0207C2031241F102820F3
:106540002C3126110A3112512E63CDFF3C1C0164FF
:1065500000E2C012615C336C5118D15CF21CB65C75
:10656000D29F5C4DCC071C01B5F15044192DF41796
:106570003D082D2E09EC2121101803C2FF14F00F45
:10658000184FBEFF9E3C2F0025E43D6002082818EE
:10659000DA3223B1FF562FAEFF04351EAB9E031E29
:1065A00006821C1C01C0B284623D214A2D741B1E50
:1065B00076B216236D1C6C4D60213D70262E27840B
:1065C000282D66101E48161B4004305C00282BD076
:1065D0000A2C0120380721131C03B27F2802DB9C00
:1065E0002A2C01006D1CF03C414C12A9602F804602
:1065F000F2201C0206280FDA8C262E10AA032C0685
:106600000620424301EB0200361C2F405C18074D68
:10661000DC292FA41DB2104FCEE7D8201DC90413CA
:1066200000EC042D0414100768831F4078811F407C
:10663000880412780C128C08127C081290081280C0
:10664000081E341D3A2DD005FF0F381248041E7C59
:1066500022223C037C04FDF7A0822FFC0243DFF8DA
:1066600074044804363EA445081DCA501C04F8684A
:1066700046FCF74EF6302D962A2DBC051DCB201D6D
:106680007C2A1EFC5C372DC0081401FCF7B9C6300B
:1066900005FCF767FF37BDFE3A4D84041EBEC803F4
:1066A0002406D803844240F0F880C61C010028204C
:1066B000A0251C0F43D02AD3042865D057D3062821
:1066C0007CD06ED308521310059080C0F083800AEE
:1066D0000A12A10A100194800C0A12B20A1001A534
:1066E000800E0A12C30A1001B6800F0A2C02C9805C
:1066F000BBE182041DA0231E03AD419DD8042C02E2
:1067000090FFAEE1D60411043E73DA0442971E2DC9
:1067100028061E82A204C3F10014100186FF9630E1
:10672000125030F2005030F2026A3050016EFF7E9B
:106730007A92247A121C7A500153FF711A92101A1D
:1067400012081A500146FF641A92001A1EF8B8285F
:10675000500139FF571A63EC021A2DBE3730012D54
:10676000FF4B1863B7481612B616300122FF4016C9
:1067700072B41612B216300117FF351672B0161227
:10678000AF1630010CFF2A1672AD1612AB1630018F
:1067900001FF1F1672A9162DE0373001F6FE141600
:1067A00072A6162DDE373001EBFE091672A2161204
:1067B000A1162002E0FEFEE016729F16129D163012
:1067C00001D5FEF316729B162DE0374402CAFEE88F
:1067D000E0F0161FF014013ED027F014015CD050F9
:1067E000F034016FD063F02402828075D3EE1694EA
:1067F000DA3687EE12A50A3698EE12B60A36A9EEF8
:106800003001BC80C45E72665E12645EE4069BFE6C
:10681000B9E0814E824FB6F7018FFEB6F0050093C6
:10682000FEA3E0784E792CF202792C30017DFE8DAA
:106830006E726E6E126D6E300164FE8216726B1691
:10684000126916300159FE77167249161248163031
:10685000014EFE6C16724616124416300143FE615C
:1068600016724216124116300138FE5616723F1645
:106870002A3D0033FE4B16723B162A3A0033FE4087
:10688000167238162A360033FE35167234162D4E1F
:106890003F30010CFE2A167231162A2F0033FE1FDC
:1068A00016722D162DF42D3001F6FD1416722A16CF
:1068B0002A280033FD09167226162A25001FFDF727
:1068C00006091E6C5D094F6014D4042DAC0D1E1812
:1068D000BC041E28C4041C05EC801F40DC821FB9C8
:1068E0001010011F40E00812E40412F40C12E80832
:1068F00012F80812EC0812FC0812F008120030120C
:10690000F40812040812F80812080812FC08120C05
:106910000812005012100812040812140812080875
:10692000121808120C08121C081210081220081263
:106930001408122408122C04121C0C1230082220F5
:10694000142D4C05110C122808223860FD0C4C0542
:106950001EECC82B5C03EC01FCF7FA603EFF45E43B
:106960000194096FFF4784061DB8041C03815FF082
:106970000C0952261D6D081DF00F1DBC1C4C065045
:10698000444068404516D034051D041F29AC6620DC
:106990007C61261E1A40271803544810EB8CAA1C51
:1069A00001C0FF15BA2F1E013A3BF20AB32E52491D
:1069B0002E1C03A9FF8DF8092C1B2DBC054D960339
:1069C0001E0696031C0118D00996033C071CD00D27
:1069D000D320E0302007D605100108001A581F0305
:1069E00060FE49310E600413E043F230000E900166
:1069F0000CE04B0E52052A4138C1CC900211D00157
:106A0000978A1D5F19200411EB80010091A42DDAF3
:106A1000081D2E26C001FF10E024F2002024800271
:106A20005BFF02AA5853017A0C1FF90A60281C0167
:106A30004068FD4A274C02BDE8FF87A4212C020CC8
:106A4000200C4BBE442E21C4451C06431944097A30
:106A50002600F6001E100106F018921C01FDF71A20
:106A60007C441AB4B86AA8BC1D2C4F1D72071B20A9
:106A7000109418030C7E0A4000801224081DEC0DAF
:106A80001D5E0F12307E2324FF0A12310A321F0AC4
:106A900012320A3E1AA020212410010021191012DE
:106AA000121A2F0021BE3D320D0A12220A32080AA4
:106AB00012270A32030A2D803D2FFEFEFA0F6DF2D7
:106AC00035160B7E1E232C371C0304283AD02C14B9
:106AD00005400851D043D307285BD066E056439663
:106AE000FF544392FF5230038EFF59E0011A1E8972
:106AF0002610211A128508211A500181FF4C1A52C2
:106B00007C3452781A500174FF3F4E526F34526BEE
:106B10001A500167FF323452621A525E6850015AAD
:106B2000FF253452554E52513450014DFF18345206
:106B3000481A524434500140FF0B34523B4E5237F6
:106B40001A3E3314101C0904000A4908780A7852C6
:106B50001C0A74471C0490FBF1F201FBE3084C0192
:106B60002804D060091C0174FF02F21B1DA23E1113
:106B70002E1E24C00E1C0310B4020012921C300FF3
:106B800005D40A01434B040024B21A5508E00A0157
:106B9000410C1D1A0A3C0504234403F8042C2A4521
:106BA000115E2C0C601EB0F1807F01D301200EE03D
:106BB000601E00331F0F21A4331DB43E1EDABA0934
:106BC000123610100107203506115A1DC80F201269
:106BD000344934480268344BB2FBF3F20A6002686D
:106BE0004FF47A730C1C074A6019220A7364228AD4
:106BF0001E2511142C0772B0FBF2F0097B484318D4
:106C00000B1C0101BD26BC121C05027B891881608A
:106C10002716251E19A63D1C237047214A93681884
:106C2000001E4B1B68190093689842F6D15268B158
:106C3000FBF2F1401A70471A4B99680800172E357D
:106C400010030A009968881C1154300671484319D2
:106C500068B2FBF1222D9604200A154D6868804722
:106C60000700E619761E0A58038642FBD2F1261E5B
:106C700044541E1E05C02F2C087A700B49C9688821
:106C800047F5E790441C0300E400E01854441DB4A9
:106C90000513E018041D6C3D17E02C342D8C3C10BE
:106CA0000340420F000C0CFE0868983C6DF4043E53
:106CB000483A313C01FCF780020F1D4A31FE330295
:106CC000F4041C0913005A1E002B06D043691B084C
:106CD0001F2C030B78C36149081F5F473074102DC8
:106CE000460A1E21460A4C04FEF70CF800950A10CD
:106CF0004DFC0F4D801A2D46043210064C04110035
:106D0000FBF7DEFC600A1EFDC22A1DF2111D1A12DD
:106D10002C02FEF726F82A11121C944D28052C058A
:106D2000B0FF6248844214E0105F9062AA064C02F1
:106D300002216048140C700101905F14125D147000
:106D400003A1FFA6E05C30125B1C100501235A4A28
:106D500002215A1C3293303259141258141258140A
:106D6000700389FF8EE0573012561C100502235520
:106D70004A0321551C327B303254141253141253DF
:106D800014700371FF76E0523032511C12504C12D5
:106D9000501C326330324F14124E142D7E3F70035C
:106DA00059FF5EE04D30324C7C10034B4A01214BC1
:106DB0001C324B30324A14124914124914700341E8
:106DC000FF46E0483032471C12464C12461C323314
:106DD000303245141244142D7408700329FF2EE03C
:106DE00043304D7A0812411C2D7A08321B30324054
:106DF00014123F14123F14100311FF16E00F30322B
:106E00001330323C1C123B1C123B1C320330323A12
:106E1000141239141239141C03F9FE13BDFC4C056D
:106E20007EF00C082D60203E1AFC075EF00C082D49
:106E300014082DC4122DE4074F2C85E8072DF80700
:106E40004F3085FC072D94202E50A807111012609A
:106E500010124C0C123C0C225C1C1DAC2012701049
:106E6000124010128010126C0C12440C227C1C1D5B
:106E7000101312A01012481012B010129C0C124CD9
:106E80000C22AC1C1DE02012B86412501012C880F5
:106E900012B40C12540C22C48C1DF82012E82C12CF
:106EA000581012F82C12E40C125C0C12F40C12C0E4
:106EB0000C12600C12D00C12BC0C12640C12CC0C14
:106EC0003C1710B410F00703414C22684FF6FF0145
:106ED0000A403F4951EA03210A4322CE451C0200E1
:106EE0000081B0AC062E91A20F1E896016230BD034
:106EF0000E2C14009944F620629142F3D200BF0098
:106F000099491C0091F5E701B008081C0AF0418E70
:106F1000B0FBF798FBFBF70DFD6E3C1C04F8FBF78C
:106F200086FB05FE042C01CCFF2AE0481E47A04545
:106F300013FC07101FE9FC7C431FFCFE2C154F259A
:106F40004A0C072C029BF8244D12492D46111C03B4
:106F500055FE684621043A1C03026001A820383817
:106F60001C0300F056FC105C371F05AE8A2B1C0476
:106F7000F00CFC0026FE5E2D1C080027802FFCDA9A
:106F8000E84688F88A1F1F2088B20D1C0698F80171
:106F900020154909A82E464001FF09AA581C026F76
:106FA000F803225C13115630071EFEC820216988A1
:106FB00047002C61165213161C037F1CD7E70C7C6C
:106FC000042C020000FA0564041E38152225F41270
:106FD0004008124404FF075415B80E4D182A3C050A
:106FE00031493248FCF746D630FE1930182AFD1CCC
:106FF00066096FFC41FA122802194C194DB44F0072
:107000009502042DDE159C03D9FF154E16080C3E83
:1070100002F40B2ECEBC121E088212A2802C33D199
:10702000FF1291281EC86C081BF381EC11E85F5C0D
:10703000151843DDF40A25E04D2E242E1F623A1E5A
:1070400058CD3A2C01D0287B1C4D1E3ABE2C1F1562
:10705000F1C73F2C03F020F98046E2344F00B2081C
:107060003A1C01F04107132A11512E2F60241EE70C
:10707000F8241E90940A1E90940A3EB0E00F2DCA88
:10708000142C024FF43A7278414001FCF7A6143DEB
:10709000BA3A2FE9222C363001FCF79C141FB8466F
:1070A000221A4E40D0141003EE225349561A328F42
:1070B0001A1E2B3625234146D653AFFF743D8E0A48
:1070C0008D043B1C010A32470C168C02FCF777F842
:1070D000141510030F3242494814326D141E2770E4
:1070E000273E103C111C03BA464A46415C272C0639
:1070F00000F0D8FA287A3873F015300306D1E96821
:1071000017DE1E7A701A1EFF304E31DE4E87EA2DD2
:10711000430C00661C01A6322D7E079001FCF7444B
:10712000661003A73228492914323A14232E006826
:1071300032046872A2681C01A4FA7064171C017002
:10714000603EC407F101561C01D932188D1F900111
:10715000FCF719561003DA3213491714720F561E32
:10716000307424F0060102D043F222500CE0627029
:107170000173FA375E8D8A2C4D062C1E2E380A16A6
:10718000B09F12A40412E8042AF0E829FC1DCD0BDC
:10719000120C041214042FF8B5E63E1D58171D46B4
:1071A000171C018A222C26251AFB42419010030647
:1071B000D18B2227E41AFB42618E1D882D2C019071
:1071C000307A360B1270061609372D9A0B200330D1
:1071D0007B8DF80BAA1390B0101E0C00072D6626AD
:1071E0004325FCBA2F21500C17DC0105B0F0E41642
:1071F0001C010D1210962C6802FBF799FF1A10055E
:107200004FF487720B490D14978FFFD010021206AE
:107210004909143285144DE4162160100366FCF20E
:10722000BD34C4122404126C04127C041284044081
:107230000400480047B9340852ED0843213508528C
:10724000550852890852BD0852F50843293608529C
:107250005B08528B0852BB0852EB0843193708529F
:10726000470852750852A30820021B2F00600843EC
:10727000B9411052CD0852DD0852ED0852FD0843C5
:10728000933C08529F0852AB0852B70843153D087B
:10729000523908525D08C3813D70F12F0843473AC7
:1072A0005043854C08F301974C601C0913F0004CC7
:1072B00003D55B425242630C261C119CEA210C0050
:1072C000F0178010B5644603D349424042619D10D7
:1072D000700500F00EF864000410832442322D1073
:1072E0000A2C10BBBBE1B1B2F5803F80F07E80027A
:1072F0002A1ED98C46820A1C1002FB11C31B0443B0
:10730000EA1043B3FBF2FC02FB1C33DA2A23EA0344
:107310000E1C05F002FB103240EAFA0C4008237004
:1073200047022A05D98446B0161C06C270474AB1E6
:1073300005D1004C451C0249085FEAD8311A4723A1
:1073400011262C0300F006BD0B0E551D2E0610094C
:107350007047904271EB030CF6D3B376102B2FD20B
:10736000F0B5B3FA83F7B1FA81F4A7F10F0E3D1B24
:107370005340CEF1200602FA0EF2F3415340B5F12C
:107380000F0746D80F3C2C444140C4181C1EA04097
:10739000F1414140B1FBF3F603FB1611A2FB064598
:1073A000001BA94102D2761E8018594180EAA837F5
:1073B0001002FA0EF3623E100800215A403046F0E7
:1073C000BD30B42E1002FC03FB1C2E320C2E200408
:1073D00003D2ACF1010C301C0530BC02460B4660F8
:1073E00046581C017047B2020C300565D3F0B5B2A7
:1073F000FA828E3011C7F10F063D1B22FA06F30701
:10740000F1110EF24120355A8ED3B8D98AD15C528F
:10741000BC5CA00A0F2F12D30F3FC90341EA5041B1
:10742000B08002D4EBC030B2100746EACC3C07B3C0
:107430004140C752F214B8DC112A2204E0600C0C5F
:10744000FA07F05A402CFA04F13043F0BD1E1D8FAC
:1074500061111C940460465A40F0BDCA1602CA6607
:1074600063CAF0041E1B024CEA00201222321025CF
:10747000CC1C0862F30F2262F31F424018961C10C6
:107480001D0308D0C91A1FD3DB0748BF00F8012D20
:1074900028BF20F8022D130030B4144615461039C9
:1074A000102005E93C00FAD849070A40080C0048BA
:1074B000BF40F8042D89002841342D76073001C9DA
:1074C00018180C12CB2821082D14091C0662B38B46
:1074D0000708D0521E3054123B1414133B00F02402
:1074E000808B07F6D1830740F0208000BF103A0759
:1074F000D3DC1004E83810103AA006100BF9D23093
:10750000BC530724BFB1E80810A004100444BF51C5
:10751000F8043B70133BD216100231F8022B741C96
:10752000042B44BF0B7803C61C1C03121F17D35B2C
:107530002B282124111820033B1B0C121F082002AA
:10754000F6D20BE0142172631B0A1A210E6008F3B5
:10755000D238BF121D521E24BF9223F8D8A824117E
:10756000C1F30A5340F2FE329B1A24DDCA17C90246
:10757000D3F120F41C2A5141F0004104DDD94088A8
:107580001850401146704720330CDDC002C3F12073
:107590000C01FA0CFCD940D840604480185141508D
:1075A000405100531DDE081006301B1803D0D04395
:1075B00080382D264529941401CB17C0FA18065897
:1075C000405940DB07A1B1961808F241409040C2F3
:1075D000F12002D12A101502F21D4243EA025CC3D7
:1075E0000A420572F1004253EB41504CEBD1382076
:1075F0001650B1B0FA80F29040C4F2D011A1EB0263
:107600005202EBD02119434005B01C010246F4AEF2
:1076100006200C04F882ED001B604700BF30EE101E
:107620001BC41C1CA3F57C730E3BCCBFD3F13500EF
:1076300027E0B3F1150012DA6FF000000B33D840E9
:1076400021EA7A1610082043EC110B30EE410B01B1
:10765000A211361E0BA4321106137047261C01031B
:10766000C3406C28F002060B9843412420040020FC
:10767000352BBEBF1621221F0AE0D8281E1BCC1FA7
:107680001F13138E34529C1831281D60282FB04CC4
:10769000062A1C06B0EE418B51EC180B124D2C0340
:1076A000410FBF00288C296D86251F82B070071EF0
:1076B00082662930024BB4EE44122308D12C1C06FA
:1076C00048004015401C02D1982A5004F0638251B2
:1076D000EC1012200200F06B810E214C12084C11AC
:1076E0001E828130300100F05C0E1C064B0043EA24
:1076F000D073420014291C06BF002AB0EE489B1923
:107700004E1314093344A4EB5352352A04DB000E04
:1077100021AA2C0C0CE0202A03DD203AD140914014
:1077200000E01C1F140503E0002AC4BFD09C1E41CA
:10773000D829216A2006C80F1CBFB4EE498B9C2FA4
:1077400005D02E07100B02B09FED740B1BE253EC1B
:10775000102B23461003B1F5801F22522F09D24768
:1077600007319614029212D0689C1C0126FC0EFE72
:10777000451F4844001D2C077404EB115000903B3A
:1077800040D03B4008924643EA000B4BEC10AB6202
:10779000200431D021F00040501001034643062D53
:1077A000542AE1C423491BC4F21E34C41E11D02A3A
:1077B00023419BBC111A1224201C02240098010CA6
:1077C000589C019FEDBF0A2716B080170020981F14
:1077D0001B200A2B2F17E0542B14029FEDC16BBA0C
:1077E0001C083B00EE063BBDEEC33B13B82A10015C
:1077F000203802061E128C2A1A046C1808BAEECD24
:107800004B34EE011B4001281D262B1C01010B826D
:10781000142B200220EE003B3C1C0D9FEDC27B038D
:10782000EE067B9FEDBAAB07EE03F62B100BBACB3F
:107830000AEE03CB9FEDB06B0CEE03201003B07B80
:1078400006EE032032B02010022AEE033B821C0415
:10785000CB33EE423B3C8E461194136B017C1007F8
:10786000A349794401F52271235C10010A183206FC
:107870001E9DB046100F92ED002BB8EEC11B31EEED
:10788000022B9FEDAF4BB036100500EE043B23EE0C
:1078900008BA2004AD6BB4EE461BDC14044AD49F36
:1078A000EDAC9BC0310E140140DA51121EC8E2400B
:1078B0001D022C400C4B31EE041BBDEEC13B0AE017
:1078C00000BFFF01127FFA200F6B31EE065BBDEEA9
:1078D000C53B92ED025B92ED046BFA100135EE06AA
:1078E000B2100B9B4B20EE080B26EE086B22EE0825
:1078F000801401C33B0630240232EE432B3C1202BB
:107900000C240200F078F9D4180220F00002A41A26
:10791000430E48012A08D09E1A06CE16047A1C0689
:10792000930B01E09FED8D0BAC0C1BF0F74E2D7609
:107930002C8BF4E0E429F6880240F0EA80D81205A6
:10794000121B18BFC81C080B40F0DE8053EC182B2C
:10795000591C111C0B4915491C55D05D0045EAD234
:1079600075546F03116C3A2CE8100841A1EB555483
:10797000352C04DB028612038619241A2C244802B3
:107980003CE340A3241A22241C052CC4BFE240A2DD
:10799000400C04190A3A41E01DBC05132053108124
:1079A00054197C1A2C063A2B7CF11E581802122B03
:1079B00030B164357A120C5A12015C1210BA21B837
:1079C0003C0708D11A0306D1DA0F1FEE034004C8A2
:1079D0000F4ED040E0D8211E121A1EEF18D16003BE
:1079E0009E1760033E156003300176FA11362C0EA7
:1079F000DA0F25D000B303E0D0B9DA0F20D1D8B127
:107A0000A2034C04320B4AE0334C760341641C0160
:107A10000098071A2F1F19DCA2141C07BFCD3B7F4B
:107A2000669EA0E63F7A1437DC107C2002C80FE087
:107A3000E7383003270B2EE038425C01270B291C66
:107A40002A235040101F250B6640201390FFFF4A49
:107A5000E98A942449D23FF75F97999999D93FBC15
:107A600055011820E53F62CB68D96F46C73FC6C9AC
:107A700012DAC471CC3FF7DE29BFD8F8C23FF4B3A5
:107A8000FECC1A99C33F244C030B02B000BF8A2DD1
:107A90001C03B08CFFFF0F886B4008E03FFE822B79
:107AA000654715F73F6C4FE0C080615007E040EF3D
:107AB00039FAFE422EE6181D7804B002FCFFFF00E2
:107AC0000152F0101DC3261C25F10103810704D0CB
:107AD00010F8011B820781B1FAD10268A2F10131CD
:107AE000914311F0803104BF50F8042FF6E709BA32
:107AF0007A061C02F100EBD1583A1EC078141DB46E
:107B00000C1C1BB430B583B00A4606A9029104468A
:107B100000250194009502AB01A9084878441E3065
:107B200084271C1AFA019A157000284EBF044601DA
:107B300098041B204603B030BC5DF80CFB00BF0965
:107B4000180C214487F8B5D858052DED089B21D095
:107B500033FA2B1CD04E411A7216163C0711D09FD7
:107B6000EDB33BB4EE437E04200640F1AA809FEDC6
:107B7000B10B2A195480074155EC104B0D46B5E066
:107B8000541A020E800240F048814C1201121A531E
