:0200000460009A
:1020000000000420C12D00601B2F00601B2F00600A
:102010001B2F00601B2F00601B2F006000000000C2
:102020000000000000000000000000001B2F006006
:102030001B2F0060000000001B2F00601B2F0060A2
:102040002021090326311820ABBEF9E792000122B6
:102050001C0D1002401C401B0852150C1214085293
:10206000120C12110852110C121008520E0C120D03
:102070000832294910011C401A0822510C1002C0D4
:102080001B40060852520C12070852560C120B083D
:10209000525B0C214852630C12180852640CC3198D
:1020A000000152106C120F0852130C2198521B0C95
:1020B000217852140CD2133C520F1821B032281C34
:1020C000321C6052506C12050852530CD2083C521C
:1020D0005C1821F852620C12170852650C217852D4
:1020E0006A0C121F0852166C2540520A0C1209087D
:1020F000322558231C402052220C21A85220242192
:102100003C521F0C121E08522A2421E0524F60122A
:10211000040852540C215452570C120C08525D0CF6
:10212000251452610C216C52660C214852690C2115
:1021300060221D0C116C25F4521A0C251452190C36
:10214000258C23230001490452210C216052270CC5
:102150002124524B542107524E0C12030852550CA5
:10216000250452580C2928525E0C21FC52600C2583
:102170002C52670C219052680C21A421AC2190C3F1
:102180001D0001520118210732261C361C985224CA
:102190000CD21530524C542138524D0CD2022452DC
:1021A00059182928525A0C293C525F0CD21430225B
:1021B00031104A80E8217C2190257452050C25B00D
:1021C00052020C217852030CF339020001522F8481
:1021D000216C52320C2D6C0352330C29D052340C2A
:1021E0002934520B84259852180C21BC520C0C2116
:1021F0002052040C21B052060CF321050001523686
:10220000782154522E0C215452490C25DC52350CA5
:10221000219052300C216C520D782198327B7C4DEC
:10222000740452091821D852080C21F052070CF3FB
:1022300021060001522C7825A452480C29705247DF
:102240000C299452430C253452390C2928327970C8
:102250004D5C04527C0C2D2C0452780C21C8527712
:102260000CF3390C0001523B84251452410C297C9B
:1022700052460C2DF003524A0C2D5804527A84F227
:102280002E0F84327E40360C2CF107015242782901
:1022900058523C0C251452400CED9C03523718F553
:1022A0000B205271C025E052720C25F4526B0C21A8
:1022B00007527D9C2107527F0CFD0B6C03523A782C
:1022C0002514523D0C2DE004523F0C2DF0035245D5
:1022D0000C2D240552380CF20A0D54526D902178C1
:1022E000526E0C29F4526C0CF32D010001522D8416
:1022F0002160523E0C2D4C0552440C2DC005522B32
:102300000CF10B6B5270902D6C0352740CF3750929
:102310000001526F902D880452730C2DEC035275FE
:102320000C2D2C0452760CF25E0BB4F309CC8A040B
:1023300052FF01F2003E141D50091D4506127D0496
:0F234000126104129F042EB955060001A4781FE4
:10240000BFF34F8FBFF36F8F0020DFF81415086004
:10241000BFF34F8FBFF36F8FDFF80805016851F4EA
:1024200000310160BFF34F8FBFF36F8F704710B45F
:102430000020DFF8F4140860BFF34F8FDFF8EC04DE
:102440000168C1F34E32C1F3C900030043F6E070E6
:1024500010EA421050EA8370DFF8D444206018007C
:10246000431E0028F2D11000421E0028EBD1BFF31A
:102470004F8FDFF8B004046854F480340460BFF375
:102480004F8FBFF36F8F10BC7047DFF8A814096837
:10249000080010F0030FF8D070472DE9F0415FF00D
:1024A000FF30DFF890140860DFF88C140860DFF864
:1024B0008C140860DFF888140860DFF8881408605E
:1024C000DFF884140860DFF884140860FFF7DDFF8C
:1024D00042F20100DFF8781408605FF4E810DFF8DA
:1024E00074140860DFF87004DFF870140860FFF7F8
:1024F000CCFF0020DFF8681408600020DFF86414C7
:1025000008600020DFF8601408600020DFF85C1429
:1025100008600020DFF8581408600020DFF8541429
:1025200008600020DFF8501408600020DFF84C1429
:1025300008600020DFF8481408600020DFF8441429
:1025400008600020DFF8401408600020DFF83C1429
:1025500008600020DFF8381408600020DFF8341429
:1025600008600020DFF8301408600020DFF82C1429
:1025700008600020DFF8281408600020DFF8241429
:1025800008600020DFF8201408600020DFF81C1429
:1025900008600020DFF8181408600020DFF8141429
:1025A00008600020DFF8101408600020DFF80C1429
:1025B00008600020DFF8081408600020DFF8041429
:1025C00008600020DFF8001408600020DFF8FC132A
:1025D00008600020DFF8F81308600020DFF8F4132B
:1025E00008600020DFF8F01308600020DFF8EC132B
:1025F00008600020DFF8E81308600020DFF8E4132B
:1026000008600020DFF8E01308600020DFF8DC132A
:1026100008600020DFF8D81308600020DFF8D4132A
:1026200008600020DFF8D01308601020DFF8CC131A
:1026300008600020DFF8C81308600020DFF8C4132A
:102640000860DFF8C403DFF8C4130860DFF8C013C4
:102650000860DFF8C0130860DFF8BC130860DFF81B
:10266000BC130860DFF8B8130860DFF8B81308601F
:10267000DFF8B4130860DFF8B4130860DFF8B013B4
:102680000860DFF8B0130860DFF8AC130860DFF80B
:10269000AC130860DFF8A8130860DFF8A81308601F
:1026A000DFF8A4130860DFF8A4130860DFF8A013B4
:1026B0000860DFF8A0130860DFF89C130860DFF8FB
:1026C0009C130860DFF898130860DFF8981308601F
:1026D000DFF894130860DFF894130860DFF89013B4
:1026E0000860DFF890130860DFF88C130860DFF8EB
:1026F0008C130860DFF888130860DFF8881308601F
:10270000DFF884130860DFF884130860DFF88013B3
:102710000860DFF880130860DFF87C130860DFF8DA
:102720007C130860DFF878130860DFF8781308601E
:10273000DFF874130860DFF874130860DFF87013B3
:102740000860DFF87003DFF870130860DFF86C03CF
:10275000DFF86C130860DFF86C03DFF86C130860B7
:10276000DFF86803DFF868130860DFF86803DFF854
:1027700068130860DFF86403DFF864130860DFF8AB
:102780006403DFF864130860DFF86003DFF86013A8
:102790000860DFF86003DFF860130860DFF85C03AF
:1027A000DFF85C130860DFF85C03DFF85C13086097
:1027B0002120DFF85813086047F6A810DFF85013FF
:1027C000086040F63170DFF84C130860DFF848030A
:1027D000DFF848130860DFF84803DFF848130860A3
:1027E000DFF84443DFF8440320602120DFF8401382
:1027F0000860DFF84003DFF8401308600220DFF8CC
:102800003C1308600020DFF838130860DFF83463F9
:102810005FF000473760DFF83053DFF8300328609F
:10282000FFF733FE3760DFF82883C5F80080FFF735
:102830002CFE3760C5F80080FFF727FE3320DFF855
:10284000141308603760DFF810032860FFF71DFEDF
:10285000DFF808032060BDE8F08110B5DFF8000361
:10286000016851F470010160DFF8F8120A884FF630
:10287000FE7002400A80DFF8F0120A884FF6FE7000
:1028800002400A80DFF8E4120888400704D50A886D
:102890004FF6FB7002400A80DFF8D4120888400728
:1028A00004D50A884FF6FB7002400A80DFF8C402A4
:1028B000DFF8C41208604FF6FF70DFF8C01208603E
:1028C000DFF8BC02016831F0800151F020010160A5
:1028D000DFF8B0020168C90703D50168490849005B
:1028E0000160104C2068800301D4FFF789FD206847
:1028F000C00301D4FFF79BFDFFF7CFFDFFF7CDFD30
:10290000C046C046DFF88002DFF88012814203D063
:10291000DFF87C02016002E0DFF87412086010BD8D
:1029200050EF00E014ED00E084ED00E080ED00E009
:1029300060EF00E068C00F406CC00F4070C00F40F7
:1029400074C00F4078C00F407CC00F4080C00F4063
:1029500030800D4000810D40400D010014C00F403B
:1029600014801F4018801F401C801F4020801F4083
:1029700024801F4028801F402C801F4030801F4033
:1029800034801F4038801F403C801F4040801F40E3
:1029900044801F4048801F404C801F4050801F4093
:1029A00054801F4058801F405C801F4060801F4043
:1029B00064801F4068801F406C801F4070801F40F3
:1029C00074801F4078801F407C801F4080801F40A3
:1029D00084801F4088801F408C801F4090801F4053
:1029E00094801F4098801F409C801F40A0801F4003
:1029F000A4801F40A8801F40AC801F40B0801F40B3
:102A0000B4801F40B8801F40F910010004821F40AD
:102A100008821F400C821F4010821F4014821F40FA
:102A200018821F401C821F4020821F4024821F40AA
:102A300028821F402C821F4030821F4034821F405A
:102A400038821F403C821F4040821F4044821F400A
:102A500048821F404C821F4050821F4054821F40BA
:102A600058821F405C821F4060821F4064821F406A
:102A700068821F406C821F4070821F4074821F401A
:102A800078821F407C821F4080821F4084821F40CA
:102A900088821F408C821F4090821F4094821F407A
:102AA00098821F409C821F40A0821F40A4821F402A
:102AB000A8821F400400001000002F4024050300DE
:102AC00008002F40240503060C002F401B00008047
:102AD00010002F401B00008214002F401B000084B8
:102AE00018002F401B0000861C002F402100009082
:102AF00020002F40190000A024002F40170000A83C
:102B000028002F401B0000A92C002F4030002F4030
:102B100004002F4040002F402229650044002F4030
:102B20002009010048002F404C002F40080A215086
:102B300080002F408888880084002F4094002F4018
:102B400098002F4090002F409C002F400F005AA566
:102B50000C005AA5A0002F400A005AA5090A2150CE
:102B600088ED00E008800B4008000D4000800B401D
:102B700000000D4020C528D904C00B4008C00B4000
:102B800000C00B4010E000E00020006000000000EA
:102B900008ED00E001680A680A4482604B6813444B
:102BA000C3600831016070478168C268914209D1F1
:102BB00001680B68CA188260D1F804C06244C26020
:102BC000083101608268521C826012F8010D704762
:102BD00038B504460D46A068E168884213D12068E4
:102BE0006168884208BF00F0CBF82168207C0A6841
:102BF00000B14A44A26010464A680244E2600831CB
:102C000090422160EBD0A068401CA06000F8015DFC
:102C100031BD2DE9F84189B000F1080100910A4663
:102C20000168490802EBC10300220292039201935A
:102C300000F108010268520801EBC203049300226C
:102C4000017901F001018DF8201040680499069285
:102C5000400801EBC0010591079200980199884254
:102C600003D06846FFF796FF71E005980AB0BDE80B
:102C7000F0810298039988420BD1009801680844BA
:102C8000009902904A6810440390009800F10801EE
:102C900000910298401C029010F8011D04A8FFF753
:102CA00097FF6D1EE5D1002C51D06846FFF77CFFE1
:102CB0000746C6F38100032804BF6846FFF774FF88
:102CC000049D0699079E07EB002707E03F1A083D81
:102CD000A5F10800016840680E18314655F8080C47
:102CE000081AB842F2D37F42A41C0F442FD0B74237
:102CF00006D155F8047B55F8040B3E18B742F8D0BE
:102D00000698079917F8018B884219D104980599FC
:102D1000884208BF00F034F8049801689DF820004C
:102D2000069110B101EB09000690049906984A68D3
:102D30008118049A02F10803884207910493E5D0B0
:102D40000698401C0690641E00F8018DCFD10298B1
:102D5000039988423FF481AF6846FFF725FF064696
:102D600016F0030503D16846FFF71EFFC51C3409A2
:102D70000F2C96D16846FFF717FF00F10F0490E77C
:102D80000120FFF75DB930B4002513E050F8042BA3
:102D9000D30744BFA9F101039A18091F042942F877
:102DA000045BFAD213468C0744BF15809B1CC907ED
:102DB00048BF1D7050F8041B0029E7D130BC704794
:102DC00072B612481249016012480268124B02EAB8
:102DD0000301016008214FEA014209214FEA015332
:102DE00042EA0301026841EA020101600B480168FE
:102DF00041F0070101600A480A4901600A6882F34C
:102E000008880948804762B60848004744C00A401D
:102E1000FFAAAA5538C00A40FFFF000040C00A4080
:102E200008ED00E0002000605B2800600F2F0060CC
:102E300010B5074979441831064C7C44163404E037
:102E40000A68081D114488470146A142F8D110BD07
:102E50002C0000008C0000004EF68851CEF20001DC
:102E6000086840F470000860BFF34F8FBFF36F8FA6
:102E70004FF00070E1EE100A704700000BFFFFFFFB
:102E8000E8010000800900200000000087FDFFFF2E
:102E900002000000020000007A5E0000FC0000005A
:102EA00000000000000400006BFDFFFF02000000B6
:102EB000020000006A000000F45D00000004000051
:102EC000CD8600004FFDFFFF020000000200000061
:102ED0007CF1FFFF030300000000002080090000D8
:102EE000DFF800F095630000DFF800F05B8A000077
:102EF0000120C046002801D0FFF79AFFAFF3008001
:102F00000020AFF30080FFF7EBFFFFF7EDFFAFF31B
:102F10000080FFF7A1FFFFF7EBFFFFF7FEBF3200D6
:102F2000014001F0BF0001D2800821012002C052FF
:102F300094EE20100348204E51BE089003F86467B9
:102F4000BCBC202002208133ED20200280B3DB14A2
:102F500020A002506706A3202002D0E9DCEB20204D
:102F60000208C3925920A00280B0D3B8202002707A
:102F7000F98FEA202002C0A5102820B002E8BFC0C7
:102F8000B0202001284CE920200260134B4220B0E1
:102F900001C03D2040300250FA10E84020015FF6A9
:102FA0002B20B002905C71A7A03001FCDDE6202050
:102FB00001F8F15420B00218E9F6B9A02001C3B21B
:102FC000E520300170E43220A00250DB06B420205E
:102FD0000210EF8EE420300220F3625280A0012A1A
:102FE000879A202002B02272E3202002F0E8E05607
:102FF00020A00228352DBD202002000A5CE22020FE
:1030000002B0FA8E4120C00140AE6F203001564C14
:10301000E140200115CD5F20A00200141C9020206B
:103020000240BD42E020200230F9345720A002E0E7
:103030006C1E93203002E0F57DDE6034018A535E21
:1030400060A001DA77AA203402C09D81DCE0200173
:10305000FFA22620B4016057E260200260F98FDAF7
:10306000203401580A81E0B401F05F60603402004E
:1030700098A8D88020017A7F4520B401D05433E04D
:103080002002600FCBD6203002D091CB40E0A001CF
:103090006D1BA0202002A0FBF6D420340198C5CEE1
:1030A00040B002003A397EC02001FE2BD32034010B
:1030B000407387C0B40200926879003001C069D1C2
:1030C000A03001F16353E0A001438D7C20200280F9
:1030D000D85FCF203401181F83C0B002B03F42A296
:1030E00020300167FCCBC033FAFF40E00150E00D17
:1030F000E052C8E03635E0B7543360300200DC639C
:10310000C58033D6FF60B401003964A02002C0AD91
:103110002DC220340280A45915A0B001484BAB80C9
:1031200020011A0BBE20200250BF3C5A20B002A042
:10313000B364B620340104D6B7003001BBCF36E00B
:10314000B00176CEA820300132BBB12020012A0088
:103150004320C80128C60C4034019473A7003F2BBC
:103160003B6003B002C0E55DA5202001EE4397203F
:103170003401A0E6C3A0B00220958DB5201101ED69
:10318000F8037D00042012627573795368696674D0
:10319000203C3D20283078323055291C4025453AC6
:1031A0005C636F64655C5254313035325F4D494425
:1031B000495C4465766963655C64726976657273BF
:1031C0005C4D494D581F100A5C66736C5F636C6FF1
:1031D000636B2E683D2003696E646578505002363B
:1031E00000006469A114F12B5CF011226368616E28
:1031F0006E656C47726F7570203C202838552950D9
:1032000010016164634E2006696E7374616E6365BC
:1032100048200673697A656F6628731B5007426100
:1032200073657329202F2015A116F005265B305DEC
:103230002929000074440B63003020213D20636F76
:103240006E6669671AF00B26400C4000800C40FF48
:10325000FF100108015820015F65745CB4057472A9
:1032600069676765721C20204153534552542045BD
:1032700052524F52202220257320223A2066696C38
:10328000652022257322204C696E0AF412296422DB
:10329000200A0000216279706173735874616C4F69
:1032A0007363A8113B400F0040787D0180F0FA0263
:1032B00000E1F50540597307F8F20B6854300775C3
:1032C00074696C69746965734B140464656275672D
:1032D0005F2A3002736F6C6553453C2594110D10C5
:1032E000106B5374617475735F53657269616C4DD3
:1032F000616E61FA10085F53756363657373203DF7
:10330000283120AD0703F7240101B8400265646D40
:103310006180597C255B1B33320520017463649204
:1033200022301C2009282875696E7433325F742995
:103330001750082620307831465529203D2045F386
:10334000412F912CF003036E6578745430116B1685
:1033500064A531307005737263416464726CA002BD
:103360006465737411122821200357696474683EE0
:10337000123145B0017C7C2014F2023214F2023486
:1033800014F30231361512333E11642175F10065D4
:10339000B115F2033215F20334157168B1163169B3
:1033A000200F7472616E7366657242797465732062
:1033B00025206208100645616368526571752E65A7
:1033C00021F521C85407666C65787370692E635CBB
:1033D000FD399404FD044804FC02026770696F49DA
:1033E0000481174D4A04F12178214249901001705F
:1033F000696E737B3332E51003801B4000C00410FC
:1034000003001C400040042E005804F008211A015B
:103410001E001A020C031E016C476C703240010042
:1034200000730C36483BE0035B315D000014F20290
:103430003214F2023314323414F54C7CF404026C6E
:1034400070756172747EA119F52780414425158C31
:103450000264617461DC0361083C0B2D3E6261759E
:1034600064526174655F427081046C0328342920C2
:103470003EF60510072D3E74784669666F5721F0B9
:103480000300726D61726B20E2722031011F4018DF
:103490002806110412C004170019E0110412800458
:1034A00012C00417001AE8F00F2818051C000C00C1
:1034B0001801020306031A050E0600DC6DF3046D05
:1034C0002803410821B912451945C721961E78A83D
:1034D000036108472D3E0E810C4E53A905310112A0
:1034E0002CB0EF2C404005F103A050074578616DEA
:1034F000706C655C650850046961725C2E2E03FD7A
:1035000012A90529146004202564200000B8FE15C6
:1035100000740651FB1402616461707939F4E5D8D6
:10352000F9046C324C38424137295A99723C0B4CA1
:1035300050554152545F54797065202A3708F20281
:103540000031E25B608B5D005CF804156C656E67B2
:10355000746804FD37540393010001222F0D1207F4
:1035600002100100147F02201400242A7F2A120076
:1035700062640813230036495522500000050324D5
:1035800010011C224107100141221C2A1004083E90
:1035900008140008061208131FA0601C0E21011D4C
:1035A000830B110B100E002010080402003E51493D
:1035B000453E0000427FBB101F4261514946002139
:1035C00041454B31001814127F10002745454539FD
:1035D000003C4A4949300001710962100C364949E2
:1035E000493600064949291E000036E21D580D21C2
:1035F0000623081478221401217E301414080002D6
:103600000151090600324959513E007C1211127CC9
:10361000007F3C10053E41414122007F05321C12D3
:10362000100541007F0909090118100349497A0072
:103630007FA3127F42127F4E10032040413F0112B0
:10364000215B137F4001300A007F020C027F007F64
:103650000408107F48323E3C12060C100151215ED6
:103660000C10031929460046541E3166081E7F6956
:1036700008123F3610053F001F2040201F0C123853
:103680000C100A631408146300070870080700EFA1
:1036900020014543008B10020000552A02117812C8
:1036A000417D200504020102040040011586110B32
:1036B0002010002054545478007F48444438003887
:1036C00044444420061002487F003818100A1800AD
:1036D000087E0901020018A4A4A4E410060804044A
:1036E000780000447D3B10024080847D5F240110FF
:1036F000284492256210017C04181E327C24214843
:1037000010073800FC2424241800180532FC181077
:103710000108004854100D2000043F444020003CA4
:103720004040207C001CC0121C0C200430403C0097
:1037300044284F300A1CA0A0A07C004464544C4490
:103740001401FD39C805F17D485E9008031202049A
:1037500029DF158C7D5804F137645C037772697436
:10376000654F05FD14A4043E73ED0A4F5F6DEE0A2C
:103770003DA4043C0162756686056D28046DF40461
:103780006C0272656164AA056DC804413F8DC00575
:1037900041107E438D0CF11B841F706F2D055D0958
:1037A00007E158F100941C036A6C747A4C69111C8F
:1037B0000DB40020DFF804120860BFF34F8FDFF86C
:1037C000AA03140668C1F34E32C1F3C964100A4358
:1037D000F6E07010EA421050EA837026100C422086
:1037E000601800431E0028F2D11000420823EBD1DC
:1037F000361029BFF36F8F10BC704738B504000D29
:1038000000FFF7D5FFDFF8BC2114602800C0B250DC
:1038100060DFF8B4110878002807D10120084613AA
:10382000A8111E30060102F09EFD31BD703220222B
:10383000DFF8A401AA210170AA214170EF21817053
:103840000221C17004714571002600221100C9B225
:10385000062905DA082010415C8E19521CF5E7860E
:10386000710721FFF7C8FF70BD723001DFF85C609F
:10387000100109D120705001AA28056850075C0189
:1038800004705CE00878011A12AF1A32021A1003B1
:10389000440144704F1A52021A3003F12805DA032A
:1038A0001A100328018470421A30010328101A30BC
:1038B0000332280CDA041A10011001C4062402F89D
:1038C000000470301003EC1008702E281007042834
:1038D00017D1DFF8E4201080100512D01078401EB8
:1038E000102612D094200CE03005782B441C710374
:1038F000785B1C037020100116D1054A1213363074
:103900000305280ED1005617A4101E2011000A78B6
:10391000024414710978491DC9B200F004F801E0AD
:103920001E651E15061321088C20082A00D2B252EB
:103930001E904205DA0E1409205C8619491CF2E734
:103940003000291A1419214411F8011CC0B2884210
:103950001BD12078AA2802D16078AF2800D014E0CB
:10396000A0001207F8100D04F007FB2079012801D0
:10397000D120790228A0FC1005A078102804D131AC
:103980003E1403A078FFF73A4E100384ED00E08068
:103990000410035C0B00203C041240041003EA09ED
:1039A0000020E90412E8041280042C026CEF00E00D
:1039B000F00612B40C65FC140750F00101DFF86C3E
:1039C0002211EC600A6C120A6852F480320A6070AC
:1039D00047201801DFF85456100331F480310122DA
:1039E00012440C900349084900012225545A34849A
:1039F0004132122C26700351F400310114A15032CF
:103A00000C50211E213A83FC113A4B7047D252F0E0
:103A100014F80209DFF8E801D2FB05D041D2A80A68
:103A2000DFF8AC01046854F480340460E2415C7255
:103A3000945C638401D84110F20A7C6CFF0D6841EC
:103A40003E03100D010001F0FF0000F1804010F571
:103A50007C200048F0141B4C320B001B1213F01F8B
:103A6000039A401040091211F01F01C8402A100BA0
:103A70003E480068C00601D53D4801E03D0C11C23A
:103A80001016B53C48FFF7C9FF00280CD13A480092
:103A9000F0FAFE0621B0FBF1F43816300FD3FF40E8
:103AA0001CB4FBF0F008E0FFF7E2FF0400332A410A
:103AB00014100510BD10B5FFF7E016200C2300010F
:103AC000225FF4E131012001F069F818300D1F4C3C
:103AD0002068800301D5FFF72EFF2068C00A30144C
:103AE0006AFFFFF7FFFE2448244901602449254A64
:103AF0000A60254A026008134B0304100B0B601385
:103B00002303600A60142202602216122216122277
:103B1000162108110E524A1621081C034808600499
:103B200020F0031002FEFFF711561C02E5FE10BD47
:103B3000801319A81224041A509012140869BC1298
:103B40006010127404180770820D4000366E01EC8C
:103B5000A8100B242600800D00100024E007809C94
:103B6000241E10B01312A0081C033900100311A268
:103B70000D123B081E1209091C0733000306210021
:103B800003031557061223081003160020201720E0
:103B900012310C3C071800E08129000803F8940357
:103BA0001802C4F38566EC14080604F0FF014118FE
:103BB0000968C482762382100C91432200121212EB
:103BC000F01F0215FA02F21C100D3327003F1217E6
:103BD000F01F07BB401A40114336100F0280180136
:103BE00060212E09D340F27A32DFF8241604A0199E
:103BF0000600F084FDAFF30080202E05D0DFF8181A
:103C0000060068F040C007F9D4F1BD76F333F4053F
:103C100076129F7613B0150490020500F04976C322
:103C2000A4057620100F0025002DB22D0A2600369F
:103C3000B216F01F06072D3E12C13E12703E1278DA
:103C40003E322A3E111010080500EB850001680382
:103C500022B28C1E3AAE0412B27618010160F12233
:103C60001DAA071E21A7072EB21C061C0510BDDFCA
:103C7000F8481508FE031D0C0431081C1110B4137C
:103C800000DBB2002B07D0C1F30B431B181B1D5FD9
:103C90007A0340021C6006E010430833102D26030F
:103CA0004002090B09032E100B03D043680B43435A
:103CB0006002E043688B082148120B1AB01F042BE6
:103CC0000CDB446803238B4034EA03031400E4B2A2
:103CD00014F003048C401C4344600BE04468071A52
:103CE00052071A215C1C0230B4846890051F341CF2
:103CF000F9041013DBB29B0613F080632343150015
:103D0000EDB253EA0543836030241C07F8B54FF445
:103D10000040FFF7A1E4062F9004A4042DFE036DDC
:103D20008E041011DFF88004FFF78FFF002000F0F1
:103D3000DCFC00F00DFD010A1003FCFCDFF8402C58
:103D40001C04090A090251F08B0A112814015C4471
:103D500001121C02FFF7D7FE1E0510025401212894
:103D60000C12D10C124C2830054909490151F013AD
:103D700028100B400400680028FAD50021DFF8382D
:103D80005C100BFAFE4FF48870FFF755FF4FF48478
:103D9000081C0351FF40F2161E03124D10120610AC
:103DA000124910120E10100145FF03321208321092
:103DB00001E1FE010A12040A12DC3C128A241237C5
:103DC0002C128B08100133FF182A100130FF1A063D
:103DD000122D141286142329FF2E2004D803FFF776
:103DE000C5FE7412D40A300785FE40F20260FFF768
:103DF0001B1C12C41232B71C12C00A12771C120408
:103E00001C320D1C12B01232A91C12AC0A226938E5
:103E1000115C32FF82129C12329B1C12980A125BB8
:103E20008C12807012F10812810812ED08128208BB
:103E300012E9081283081C03E5FE0421DC8004104B
:103E40000382FE0221DB082343FEE612DA0E12D9BA
:103E50000E12770812D80812386210071250FFF7B6
:103E6000CEFE0321D510126B6A12D40812676812B5
:103E7000D30812282012142012BE2012D010125B78
:103E80002012CF0812572012CE0812182012162026
:103E900012AE2012CB10124B2012CA081247201269
:103EA000C908120820120678129E96120296129ADB
:103EB00010120A1012962012C22012330812C108E2
:103EC00027F4FD7410018BFE1206100188FE100607
:103ED000100185FE140612825012BA20121FB01271
:103EE000B9081403E0FD4FF4A32E100176FE1C1E4A
:103EF000100173FE0C0612705C128C5C266C2E2076
:103F00000230FFF768741108126408121A9C1260DC
:103F100008120E34125C6C12A9441003F9FD002142
:103F2000A80813BAFD8C112812506412A5101003B2
:103F3000EDFD0321A4081003E9FD0521A30812AA41
:103F400020120E4012402012A0101003DDFD0721A8
:103F50009F0812D928129E08129A201202201230AD
:103F600020129B1012CD20129A0812C92012990813
:103F7000128AAC12409812202012961012BD201204
:103F8000950812B920129408127A881293084802F0
:103F900076FD9248B410010160910A100131F07071
:103FA0000A19EE1DC80D1E511A084D1E0352600855
:103FB0004004F81151F490110C3380710843F080E3
:103FC0001C22F0102406814E0022002130009C307B
:103FD000010022030A12130A32060A120E0A3208DC
:103FE0000A12090A320A0A6304FE32121F0A1D9ECF
:103FF0000322510C3001EBFD708C4380515C1200A8
:10400000081E6CF006200A4BFB00F06EFB6B4E01A5
:10401000226B49281C05C1FD6A4F386830D4033330
:104020003860081002003860663A1D7C0811326C56
:104030000400F05EFB6448E6038006396821F04026
:104040004139601E300355FB01225D4810019DFD82
:104050005C28600289088900F44124310811F010BD
:104060000100F02E2C32542C700187FD5362140194
:10407000032151443C01D4FC00020412D008124E2A
:104080001016075C2D1E041C05C8FC4B484C490843
:1040900044051C0300C00F4038AE0F122004124824
:1040A0000C1274081268082DE00612F0045C03FF7D
:1040B000FF00FBC0F4061C09186C008014390014C2
:1040C0000C0008670E1C0A084014EA00041468007B
:1040D0008010E082141D04071E1C1007100424EB3E
:1040E00000801C300812F00810023100803C101FC4
:1040F0003C69DA0912FA0412641812790810036E86
:10410000008028E604213410026A00802C0C222C46
:104110000C11601328F60412F00C11241C0438F35F
:104120000780383242061002E2078020682D6807B7
:104130002D74071338EC4412F7081003EF00803099
:10414000F90411341330740411181330E9041267A0
:1041500044110812281C1F207372191006200080B9
:1041600060810D4060D8100300C00A4014042E8006
:10417000AE101006800D400D007000701C12700C07
:1041800032A0101EE0F10721081E20990A10020D2E
:10419000401872F41EFB441B140246C3237C10FD1E
:1041A00005BC063E07BC0618018E498F0A2FCEF9C2
:1041B000B806FF0B8D48B6065E03B6061ED8B606D7
:1041C0004DDE0C1208441D3E0510027280498144E8
:1041D00032AC44120442B001406A3222100397729A
:1041E00078497822329B22100B206A0121A94008CD
:1041F00040E84032BD0A64300F002A04D0426C52BD
:10420000F40052426403E0426C320A4C027047C030
:104210006C460D10120025032D06D2694850F82572
:1042200000A04201D06D1CF6E7121004D3352265C0
:10423000496656327056232800741E056214100712
:10424000002C06D142225E49601C52621C1D2E05C4
:104250001004FF5D4931F9100A102799FF696C11AC
:10426000F46041A079C00210F4C050E27912021249
:10427000F440721043227A12F003021043627A5221
:104280000112F0600A1005A27A920012F00C0A1CCA
:1042900001014320B80C2B01D0FE3320790A4002E3
:1042A000F01001E0141DB60362A01E3008616964BD
:1042B000AA6C32F041026012300352F040026030CA
:1042C0003C0552F00102AA64314A0821A41003906F
:1042D00022354937A43210A41C050B2500262700DF
:1042E00032C20C1C08380004F078FB0120607173A6
:1042F000091D620D12600412A00412E004122014C1
:1043000012A0041004E071032020721C3C0472020D
:1043100020A072F11E0D15E13C0826606C8004059A
:10432000D50120066408100DFFF74FFF0220E0645E
:10433000A06C50F08000A0082002000606D51810DE
:104340000351FF8007F7285205281E28040B23017C
:10435000D110210E12421E92011E1C0108FF306670
:104360000D4C02002803D0A8072C0324FF2800705E
:10437000780A19905E887C0312E40812D0041F9C0E
:1043800009A91E1104121C0412900412A8046D8CB9
:10439000081C1104D1836C33F0200383640EE043C6
:1043A0006C33F440430C7808300DA40314F44044FB
:1043B00023431A004264836C53202D82081C05009D
:1043C00000D30702D501A2081C044360930703D55C
:1043D000F80822330C5253167001836013161E83A3
:1043E000F2084D220E5A16741403B4723049305E2E
:1043F0002761F85E1E16880430133000400800283C
:1044000005D0022829D015D3032839D04BE008D88D
:10441000901007D1282000FB05F02044806A000599
:10442000000D05E010F3000C3A26D2C0261110F35F
:10443000000C2726C3006B261110F3000C1426D2A3
:10444000402611102E0CF40E1403FFE770BDB03C93
:104450001DD4046200DA100533002A00210002D6C0
:104460001C05A6FA00BEFDE700141D2C02DFF8644F
:1044700003D80C1C0602D5DFF8600302E04E0911D8
:10448000101D1C0A1C0301090D08183009100C0C22
:1044900010F0010070470A001201120D10124D10A9
:1044A0000D41164DA6032E284B1210010D00194880
:1044B0001FF381FF1B2F02D1000D1D55043F203239
:1044C000FA033220B41C0208D099223C09121304CA
:1044D0001DB4084FB5FFEA0A2C04FC025FF08041CE
:1044E0009E092405DC120968C903FA921E316A0E7E
:1044F0003D020F1C0BE42212681204FAD501601071
:10450000BD015E0F1C03002904D110F60812D01E55
:104510002303E00A12CC0A2DFE0A2EA0E40E3D2E43
:1045200006210E1C01BC2211140718054041037915
:104530009B0313282F194378031C01116013940A5D
:104540001C05A4120B400178113C0A200C0B4353AC
:10455000F40053136011680029FCD5322124193A64
:104560001D980E1E90420F1F70475809900250DF91
:10457000F8880CF200900C1C06F8B52DED028B8427
:10458000B05D0A1E46B40A1C0512102204F0FCF9A4
:10459000620A1F72218C033C01FFF7621C031D4657
:1045A0000542E010400265FF06000A224D1A10097C
:1045B000D03000EBE020000D381ED0FA5002114040
:1045C0001A4808400200F0D5800A22181210020191
:1045D000401A460832401A43818012141700F0B87E
:1045E00080083800F0BE80C8E0386810F07F0046D0
:1045F0004376083000C2C81402C40190EDE21C0DDD
:10460000EE906AB8EE601BB8EE400B21EE000B583E
:104610000A21181C0B1AB8EE411B80EE010BB0EEFC
:10462000408B860F1601BC1D18031005162046434B
:1046300001E01406100BBCEEC80B10EE100A861930
:1046400030009B4E1268222DD60330011620002028
:1046500010013000901630016C1108762A0548F1DF
:104660000670F2005070615C603205FB0606300097
:10467000096811F4C011002903D0B1F5002F02D050
:1046800003E0800801E04008FFE747490A68454920
:104690000A40B2F5004F04D043498A4203D11C605E
:1046A0000251E041497CF3033F487AF3273B4878C5
:1046B0001329491C1D9E081001B1F180788002B1B8
:1046C000F1404F781C0115E026FC0F100110F0039B
:1046D000782F68465406E4060CE023480AE01748A1
:1046E000202D00031C0504B0BDEC028BF2EC04ADE0
:1046F000440F1E3C7803122C041E588407125404E5
:104700001250041274201278041E1080072DA40782
:10471000100380EFFFFF30081250041260042D9840
:10472000072DB0071280043290243E80C4072DC0AC
:104730000712B00412C0042DC4074F780A9C203E13
:1047400070CC061C0B43F22156002D07D140F26DB0
:104750001266EE062DF20A2D78031009002C07D1FF
:104760004FF4B7726149621432EF141E223C0628DE
:1047700004604803F0ECFD961C035FF0FF3420A6B4
:10478000054C022DE9F0413E041E1F31092C105F3B
:10479000F00008B84511DA2868401C802805D329A4
:1047A00068D0051D021120052028602868265418AD
:1047B0001016286018F10108EBE7BDE8F0812DE93B
:1047C000F14F88B00E00170098468C2C03556846B0
:1047D00048492003100D6CF8CDF8008001969DF833
:1047E00020008DF80A041C011870382604100A01F4
:1047F000281CD1684607905FF01C0A6C193E1C0605
:10480000F8904C465A465146B9171C0AF00DF8C9A3
:10481000F81090D9F8100039C8092304A90A2C020D
:1048200003F005FD100720020ED115E0421E026CB8
:10483000031DCC07310C32030C100B2CE028002A8E
:10484000E04FF4157225492CEE3278EE400219F152
:104850001401401F1AFDA80610082D07D04FF418A8
:10486000721D4923225267225218223234621007E5
:1048700007D040F26B2214491B22465646100120F5
:1048800009B0E61C068F0EB42DE9F841A0020427FA
:104890000026221005802100226D46283A1C07B40C
:1048A000FF27AD104B6A46290405180501F0B3FC3B
:1048B000070039362D280E22213A1C03015DF8101D
:1048C000FBE80615B412880412CC0413080A2B184E
:1048D000020B0000F42812100C12D8142C0E612BBD
:1048E0000000EFF3108072B6704780F31088AC06BA
:1048F0001C0905000E001400202E08D35256051383
:104900001814041D960E560ADE2C0108D1536C05AE
:104910004E14B60E23FFFC161714F0C21D860512A6
:10492000541A1EE886053003F005FFF7F21A200C32
:1049300020687101294411F580510860A0880C504D
:104940000541F204028852E00C12060C32A02450F9
:104950000541F208028850E00C120C0C4320690C4F
:1049600012100C43A08A0C22143C510C22163C510C
:10497000241218241F41F2401B40072172012A44CF
:104980001152A18B0843E08B20121E2C500170BDE8
:10499000F8DC321FDE12DEAE123CAE2E3CF20E62AE
:1049A000FCDE12DF16122416122C16329016521745
:1049B000DE12E01A120C1A30039406FFF7831A1E57
:1049C0003A6E055C0A7001284410F5805000F034FE
:1049D000F844111F2C0916032F891278061D621640
:1049E0001E02340E95261A090E1FC572960F111C51
:1049F00040038407FFF75E7A1F2020241512A008C9
:104A000012E0041DF71B1320E0041320610C128236
:104A10000C11041004A0610820A0830C5F831072A5
:104A20001632166A10014FF4DC4E12744E12786A78
:104A3000B2376A100140F2B9181258041660AC423D
:104A4000296A222D3412DD34124018124834321DE6
:104A50001872163412BB1812240416ACC6320F1C7E
:104A60001C092868206068682061287A00980A106C
:104A70001AE060697A11F007010843E0806889A0B4
:104A800080A889A0822869A0606869E082042C0D52
:104A900083002E07D0A661A18B4FF6F77001408CE2
:104AA0000A4FA18304181D060C3D981216AD4A1E2C
:104AB000C060184404C001FFF7DEFB001401690167
:104AC00021A810111C02895AC1F3C0110843E16AE0
:104AD000E940490011F0026812610C12890C1204BD
:104AE0000C1E32380423FE4F4C2C0E17001E00DD26
:104AF000F83080DDF83490DDF838A07A041C0540E9
:104B0000F2653259495C480342B258132D08141813
:104B10000266325449B4400208FFF7A716222E1647
:104B2000100167324F1616F084329C161411012FB3
:104B300010D0022F0ED0042F0CD0102F0AD0202F0F
:104B400008AC10015A72452612D026328926100967
:104B5000B8F1010F14D0B8F1020F11061001040FC3
:104B60000E061001100F0B061401200F083E100155
:104B70006932393012A4303271302806BAFBF9F0AC
:104B800009FB10A042100340F26A32321E12881E46
:104B900032621E1C021820019096031C1090A3463E
:104BA000009A0199584603F0C8FD66602560C48EDE
:104BB00004213A100360613800013A1D04191C0CED
:104BC000D004280AD010280BD020280CD00E0206C2
:104BD000100320720BE00106100108E0020610012C
:104BE00005E00406100102E00506F00207FFE740B9
:104BF00046363260363260363260363260361260A7
:104C00003618019DF83C04120338100B05D008D368
:104C10000CE0A4F80C80678108363003A08167811E
:104C2000041011421F81FF82051C01F78F104C04F4
:104C3000124C041D8818130088041DAA0435984DD1
:104C400000031EBD7C141EA430151E802E036BECC9
:104C5000FA7A100140F2BE18128C18128C1832E049
:104C6000182C05A068217C49010846031F56E04620
:104C7000132C022AD1B08B0E0B11061C090602D48C
:104C800041F2ED30CCE00023600A18017CA068AE50
:104C90002EFEE803F01603A168227C52011144A203
:104CA00068237C5B011A44125A52F008020A521817
:104CB0001202181C010020AA2E171C0B8AFD804628
:104CC00094F9130094F914104086191C0105DB4077
:104CD00032051C0C83FD41F2EC309AE094F91290FD
:104CE000E07C7B0F60057419F1010A5046262D62A5
:104CF000092004824684F812A02E1C036CFD48464D
:104D000040740A100902D0B9F1010B02E0207DB015
:104D1000082004E068494649B2C6100FFFF7FDFDC0
:104D200000222900E0684B465BB25B011812832722
:104D3000FE202004E1684A4652B2A41801898B5132
:104D4000DEA381831C52521C1003816148465968BE
:104D500012498050033AD0E06859221C07808B30FA
:104D6000F0080050F0105620811680028783B06949
:104D700058140188421C4212502823B08308212C69
:104D800012B70A1EC0620D5EB196031EB14A04231B
:104D900021E03661721001884206E81217142DA432
:104DA000076002002012E098440200EB01027C1C24
:104DB00009F1FC607D000604D5207C102E041C083F
:104DC000A168C8760020BDE8F28F680D4E0B0C0C70
:104DD0004D92041F8A62401C1D22061E8476043EEA
:104DE000EE440E25D88305D1389723E0F62C0155E3
:104DF000607D060E10016075A87C100916D0FFF7C3
:104E0000B6FC0600A068C0221EC8E41628010AD419
:104E1000A80A13D5A8C2A17C2DA4112FA5FC48086F
:104E20006FF84376051003BE42DFF8307A120C7A31
:104E30004EB1D40F127C2C2277801D461C11061C0B
:104E40000506D000230122615E0870032568A8478B
:104E50005F881D440680010147580E4C121C014614
:104E60005A16F08006F6B2F609E0683F1A3D006D6A
:104E7000096C0E140A01D0A84609E0002D03D028C1
:104E800000FC1B08033A32140A14094046C0B294CD
:104E9000F9111000B209B8AB0CD16C22020E1C0142
:104EA000900FE0C6075001090CE02A200990B0EBF2
:104EB0000909B9F1000F03D544100819EB00098462
:104EC000F81180E07C181D211921B01C0307D04B7C
:104ED00046328C1021B24004D4F800C0E04786234B
:104EE00002D0DA1C040877BDE8F183F00E15804C7F
:104EF0000410B5DFF81C43180F1C0348FD400704DD
:104F0000780D1E08720D3003FFF76EFF1016523D2C
:104F1000161C05F002006CFFF7632E1121344FE8D8
:104F2000423C0F522E1E1001D4024034300154FF77
:104F300011165223161001BC02403452493430017C
:104F4000B442021E52141E1001A002803430013AF5
:104F5000FF1216520916100188028034522F342F86
:104F60008042A8111D1C1742FC1E10016C02C034A7
:104F7000300120FF131652EF1610015402C03452B4
:104F8000153430014C42041E52E01E300738020036
:104F900069FFF706FF141652D51640062002006D71
:104FA000FFF7FBFE3430011842051E52C61E1001E9
:104FB000040240343001ECFE151652BB161001EC11
:104FC00001403412E13456683C3001E0410622527F
:104FD000AA221001CC0180383001D0FE1616529F53
:104FE000161001B401803852C56C3001AC41071E67
:104FF00052901E10019801C0343001B6FE171612EF
:105000008516100303D56048C03252AC32300178A7
:1050100041081C32771C2C025948006AB816321815
:1050200014326D1450055448006EFFF7943030016F
:105030004841091C325F1C10014D48403030018648
:10504000FE1914325514100148484030627CFE337A
:10505000410A1C32471C10014148803030016EFE6D
:105060001A14323D1410013C488030326430300153
:105070003A4C0B1A32301A10013648C02E30015704
:10508000FE1B1432261410013148C02E324D2E3032
:10509000012F4C0C1A32191A2C022A48006BB81630
:1050A000321C14320F1430052548006FFFF7362EDE
:1050B0003001234C0D1A32021A10011F48402E30C5
:1050C0000129FE1D1423F8FB1410011A48402E324A
:1050D0001F2E3001184C0E1A32EB1A1001134880A3
:1050E0002E300112FE1E1432E11410010E48802EE3
:1050F00032082E30010C4C0F1A32D41A1001084815
:10510000C02E3001FBFD1F1432CA1410010348C029
:105110002E1403F1FD10BDB8E02E14FC0A1002801D
:105120000E40C40C12D40412E4041E48911312B0B1
:10513000045E10C0064C0C02698A4302617047424B
:10514000690A4342610A0B111F140B2640F60A003C
:105150000440002C29D02005522406F659300600C0
:1051600013E0205E13F65A0C30010DE0A00C125B28
:105170000C1C0107E0C5DC083C0510120BA0FEF773
:105180007188101E21C4102D501B1C01D5F8BCB80D
:105190000510010100C5085001D5F8B80C3C01B854
:1051A0000030B0122D982B6D24142D400D30074E79
:1051B0007273497348FEF74F44200240F66B014674
:1051C0001EAE0E0D2C012060313A0D2E47CA0A1D6D
:1051D0004C0420070AD5F814904946C9B2201EA6EF
:1051E000F81D1C03002C11D030480530010ED031C1
:1051F0007A23D4FF0E200406D073692200121C010A
:10520000D6F8104404200CADE05FEA896047D53041
:1052100068022844D1901C01C0F3837716100380E4
:1052200046B068414E2C04B0EBC10F1CD3F8061EEB
:1052300050AA0441121009410F0CDA7068011D7167
:105240006051102C0405EB8101D1F834171E1A2E81
:105250000773EBE738600300B06017E03A1EB16CEB
:10526000171F491C0C05F209D23A1C010020B03C62
:105270000A1F50F0231F2005615FEAC97011D50E87
:105280001D15104261C27273C2830022C210035FF7
:10529000EA49604AC01C03012847D1B028052744C9
:1052A000D06241C6E0040700B0683900C6C33900C7
:1052B000C66300688E6002C1F88001C6F311390030
:1052C000C6F1033A61C61240B81D800D1C028780EA
:1052D000B5043E181E048A0A140328FF01BDD8D95C
:1052E0001E141B093A9488FF0B2A40F8161401413A
:1052F0004942FA3752FEFAFD18F8166D140C2D2C9F
:10530000062D140E4C0200F06FF8760B1C010025E0
:1053100006A616BE2FA61611121004D339222B4949
:105320002B6A321D6A2DA61652F8442D46035C01E5
:10533000E2FF2596161C0DCAFF0127616917FA05C1
:10534000F081436161303C16400E05D16068AF408A
:1053500030EA0707676008E0727870230AF81630B1
:105360000307436760B2122D8A1372F198122072FC
:1053700010036B220E4911723EE44C0E4DC8061DFF
:1053800016082E68761740048843206004E00C124B
:10539000080C140170BD28304F1C0DC41512E8080C
:1053A00012A00412640419F91300DC082C1EF0B4D6
:1053B0000C000126C56916FA01F39D43C561102949
:1053C00002D210F10C0502E010F11005103C801E15
:1053D0001E01AE1E10133DD3032B1ED00CD3052B84
:1053E00033D029D336E02E680327231C400E5B0000
:1053F0009F40BE432E602DE02F685FF0030C1440E9
:10540000061CFA03FC37EA0C070E10019E403E22F0
:10541000D21C3472020C211EB20D1E21123C0B0450
:10542000E0C3698E401E43C661FFE7F030165DFEA3
:105430000C2C0669C00709D5194A100E0927D01689
:10544000921C0610200012689047D4BA24211C52E6
:10545000141C92111C180531BD80B501210F4A1A88
:10546000DC4A100380B502210D0C32D60C1001036A
:10547000210B0C32D00C340204210948AE1D50041B
:105480001A9C6812980412B4042AB0741D4B291394
:105490000040041280041EC06329AE6A661525AC64
:1054A00023F6FF7825B8232A4A762304E00C322617
:1054B0000C1A316E2C01264C608E081D64091C01EB
:1054C000D37220CC103401FEF701C61001616821AF
:1054D000763EDBB00750011D4CA0241003DB721791
:1054E000491C243EEF400E1001A1681A2432C92441
:1054F0005001144CE0241003E3720E49152432DDF0
:10550000241001E168132432B72440020B4C2069B7
:10551000241003EB7205490E2432CB2410012169BB
:105520000C2412A5241A0C0412E0D812DC0412C8B0
:10553000041248102003004039405C0820028039E2
:105540004070082002C039408408FC010D003A4038
:1055500024212E94D60F300203FEF798661D9C0C72
:10556000FE130376032D24213F8168C40B1F608145
:10557000BC1C21086D181A1C02092D07D2BC078E0D
:105580000374031C05F5E7092D08D37A1E061238AB
:105590006E12386E6F61FC78032DD20E2DFC052D36
:1055A000D20F100108D1EE24121424121C245E4FD5
:1055B00046111D3E0E13D1EF181EFC980F1208184D
:1055C00042431810047A052808DBF11812E4185C2D
:1055D00001F402FE001032601812F2183ECC821064
:1055E0003001FEF72B181D400A2E80800A1C030094
:1055F00020ADF8003E061C09040BBBF1210F36D28A
:1056000020680B701D1EB640242DF0044F80B2722E
:1056100019510C33FB0B1A200A01900199206809DB
:105620001A0F0021681863401C1AF00401091AB906
:10563000420BD2162F0F001A051006B84503D3B837
:1056400046D946721FA01B2A0D2C03C5E7206864AB
:10565000CC241C0CF103204143414502D240F221ED
:1056600050A04A131C04FFF761FF02906226100449
:1056700002029930F911102348FF161C034DFF2A2E
:1056800069B96A0F1C0604D3B9F1080F01D2901B47
:105690001C033232F0F852800D100C00000610F09E
:1056A000F8500243520B5203BDD41C10C004C00C6E
:1056B00010432861286930F000502861A969E81377
:1056C0001C160101402079E37B1B0213F4E06318F0
:1056D00043A37B9B0013F00403183A1B1E606C2746
:1056E0001E086C272D500B1D1C221C016107E0F0C9
:1056F0001D1E6188047D481B1C03A9612B6933CCE6
:10570000171007E079400310F40050185E200F6076
:105710007A227A52EA0042EA62A86A50F08800A827
:10572000081C02F44040A8F80C1C19CC2152F000CF
:105730004252F44042686A94F80DC05FEA0C1C1CA7
:10574000F0100C94F80C74071C0A4E1E1EF0200E6C
:105750005EEA0C0C5CEADA042C0162A07A700F128B
:10576000684612080E72E00E22011C3196114E108E
:10577000025201E0320610036869104368D24F20DC
:105780007CD01B50010021600A1C018021A92A1233
:105790007C03BDE8FE8FF880122606FE1DB8283C6B
:1057A00003D400FEF72C6C109E14C81B1C0202F0E0
:1057B00094FD1E262E3076122DBA1B7E60BE1B5E17
:1057C00000BE1B1110110422E00C127314110412FC
:1057D000A00422E00C127414140474F1BD02690BCD
:1057E000521C0140431A36093004826A32F44032B6
:1057F000102C03731A43826244231E8248097E825E
:1058000048095216981E3F70031234981238984D6A
:1058100000101C0130004666271C0D06D068690088
:1058200002FCD52078E861641CF4641A1EA4BC0351
:105830004F980E00061FC40F2316110412E0101219
:105840005C08126404126C0412840412A40412E8AA
:10585000043C0780B51548C168164814B404500DBF
:1058600001BDE8F8FFFF80B51048016912480F1428
:10587000700780B50C4881690F480B101C0108485F
:10588000C156047207101DB60750026A094803107A
:105890001C0300001F40E460041E0864297D3C30A6
:1058A0009D38302F1C30C01A4D2A1E1B02699A30B9
:1058B0000602026103E00269320A21FC10018AB08B
:1058C00006FE3E15581D1EEA72071E2CCE043264D9
:1058D000F82DE404100506D1EB22264928145E5A5F
:1058E0002411100506D1EC22224924123251122E25
:1058F00028B40E1004D1ED221D4920143247143271
:1059000068143C01EE22186405323D141C01607ECF
:10591000011E1B2D48232E22E0112C03766868E01F
:1059200060220F1C0AAEFF03000220039068680289
:10593000900C281104100600900122296804A87414
:105940001EFE40121C047604A92069FE880D1E204C
:10595000BA0C3C011DF801A4211E956A0A14030A21
:10596000B070BDFC581E3C8927124404125C04121E
:1059700064041270041C092DE9FF4F8BB000240B46
:105980009800122C1011451C0D98002849D00C9835
:10599000D0E90001CDE90201DD041F002952101DEC
:1059A000BC2A400830202870641C200089E01612B0
:1059B0000216200200F082800E20090E9AD31702F0
:1059C000F014FBCDE908341C19ABDDE908230E986F
:1059D000C117A0FB028900FB039901FB0299BAEBF6
:1059E00008007BEB6E301C022909D506C605201283
:1059F000F243FB43313253F10003CDE9062304E0C7
:105A0000303051F17612064252087E6008060128B5
:105A1000706D1C641CC5E794120016F200009443DC
:105A20003FE0161DE41120012838D00C41922003DC
:105A3000EDFACDE904321192F20304921202921EA1
:105A4000030C271009D801D30A2A04D212F1300618
:105A5000921C03070EE09DF8A9311DB803174120E1
:105A60001A13E0610610010A3871A01004161853C9
:105A7000EB01074E318C322E9E3C03C0E720000F15
:105A8000E8171C072DE9F34F81B02DED0AEE1B54EA
:105A90000590469A4600260F5A1F10986C1A400B24
:105AA000AB9FED5F1BB4EE41ABF1EE10FABE1E767C
:105AB00017221C0AADE002A8B0EE4A0B02F08DFCE2
:105AC000861A2EBBDC051C0ED14508D200EE108ACA
:105AD000B8EEC00B20EE0BBBCC12700409F4E79FAC
:105AE000ED4F40100819DBB6EE001B3BEE01CB2852
:105AF0001EAAD41A10021BB2EE04442004BBFCB44C
:105B0000EE40CB22100D23DB9DED020BB7EE002BF8
:105B100030EE020B8D0CF001041AE0BE341C01A122
:105B2000FCB1141B2002B4EE4C0B3832073892BF84
:105B30003870030027574531901E8C3C1B11A8106C
:105B4000029B51EC193C1C01DBFB028F181C045F0B
:105B5000EAE879A8FBE615100EFB031109FB021118
:105B600002F0FDFB41EC100B3C582D5A1B5EBD5A58
:105B70001B15B61412D583467FEA0B04313401E0BD
:105B800004003034B0EE49CB2C481405761C7F1C41
:105B9000CBE72E14126A0C2330008412BD6E11362E
:105BA0002E1AD61D701D30231370521C401C16E097
:105BB000002914D091FBF8F30093009B08FB13130A
:105BC000002B04D59B54121C543003009B19001465
:105BD0002E2FE8E7621B2F0A8B56057200012D76E7
:105BE0001A1C049AB0884693466C181C0120069033
:105BF00053081F2002C2151F8DF8EA1915EC2C0856
:105C0000CDE90A011A9F38788146D6111C0D00F0A3
:105C10001683B9F1250F07D0012348460228041046
:105C20000702A95846A04708E301322DA4322206F4
:105C3000361C18281FD17F1C397820290ED0232923
:105C400012D02B2907D02D2902D0302909B21510E6
:105C50000956F00106EDE756F00206EA06100104C7
:105C600006E70610010806E4061C051006E1E77FBA
:105C70001E01762E1C04DDE700210491802E1F9169
:105C8000088803121D4E4182100C300F0ADBB9F157
:105C90003A0F07DA04990A22101C0E0002FB0101D8
:105CA0000491EBE7B9F12A0F05D1D8320720051886
:105CB000F104080490E24A3006200890DEE706204E
:105CC00007D01C050600791C08782E8E15320012AC
:105CD0002308905C500324D1491C085C320D5C20E1
:105CE000040ADA079A0A235C200403FB02020792E3
:105CF000DA30010600E8627208624307901830014A
:105D0000DCE7496812D8081003481C017868E830BD
:105D1000056C290BD015E0400E100703D056F0405B
:105D200006401E01F8300120060B16326C16428028
:105D3000165006F4807600E0401E47E21C01640F16
:105D40001B88151001690F18061001660F15061043
:105D500001460F12061001780F0F061001580F0CA4
:105D60000610016F0F09061001620F060610017080
:105D70000F03062004750F40F0E4813E32023E1C02
:105D80000D70D1F0050AD518F1070838F00708D8CA
:105D9000A003600818F10808CDE90C0106E0C22351
:105DA000C11710269DB61F900A42141C050CA9109D
:105DB000A8FFF77BE21B100510A828440690DD1E03
:105DC0001DF21D1FD52D6C051C036D1C0DE0B014BC
:105DD00010322B0C100107E0700C32200C2D4021EA
:105DE00016034E14050590300714D503521A061CED
:105DF0008B03981C1DDC22400590049B5B1B30220A
:105E0000101C010498056E102002F00711D41652E0
:105E10002016F1073A120518F30309D11E25202197
:105E2000EE6002460F6CD1EA200298ED000BEA30DA
:105E3000078DED0E0B079B0A220ED472B9D4129D6A
:105E4000184C059FED052BB4EE42E00351DE6F11B7
:105E5000E01203F181E63658E21678E223808008EA
:105E60001D6E063D6C03F505E2960AE24DBE034544
:105E7000E21F1023B828350E678AFC0E41D01C03A0
:105E80001DD5F00612E62361BA31301D8609F006F1
:105E90000B582200E078220123E2121FE2A0061D27
:105EA000D4F00600D5AD1CE8F119522002F006141A
:105EB000D5FEF31111D1302BAD1CFC3A08FC3A058C
:105EC000FC2900F40217750F4CD10C21403C010352
:105ED000D108DE042310E0481E03A432210E12096B
:105EE0000E1D4C0333D1100E300102E00A08453C70
:105EF00064029DF805303E67EBFB3EE40230070884
:105F0000D510160710B605F21206DC130DD0062DBB
:105F10002A3415DC6002069802781AA008401E0692
:105F200090F1E7F00769D53212628A7C01630F0DA8
:105F30006A049805C0B20990012309141251227015
:105F400001730F47221C018246BA9C051C0146D0F2
:105F50009D90042DAA0712078A100503E0504602FF
:105F6000F0F0AEE1924126100112D09A3E1E004898
:105F70001B1004012D09DB01230E4220202DE40C0F
:105F800040086D1EEFE70798451B0CE026E308D09C
:105F90002212F2B8B20DB8CF06E014063C057F1C01
:105FA000E3E402981B0E082DCC0A8C0608484168D1
:105FB000094840689A0A1C01034881501250018028
:105FC0006802121DB81413201C04238010301D2EEB
:105FD000081D7E251FC5FCB40A1D18432F80694487
:105FE000322D20251D98212DA80E7E61EC0F3D84B9
:105FF000263C072472B449B448FDF71FC40F1E1590
:1060000052193C01E07631F4281E82C40E1C0B822A
:1060100069110504D440F612011140021C091F0148
:106020002372223F231926252C0203D0C0691C238A
:106030001C0901E0C069C0B27047C9B20930194CEF
:1060400002D0F80C0152102D50271C061B010344EE
:10605000C3F80C2154202FB59CBE222C010205D57B
:10606000BC2C2C06D3FFC0B2FCF7F8FC503321D275
:1060700052971C2DB82C32C51C72EA1C52921C3E41
:10608000911610211C52DC1C4C0210B58D4CE618E8
:106090001C01C1FFC076174301220E4FC2FFC81872
:1060A00012B616120816410E4C08B7FF8248018836
:1060B000491C0180B21852A71E410E5001A8FF7C56
:1060C0001E4D9C1852981E410E500199FF751E21BD
:1060D0007A2D9A1023724C181C0252FF8006EC0491
:1060E00031243E52B210326C182C0146FF008E163D
:1060F00031183246183266181E3AB6284303D57254
:10610000323A18326018122E6E5F03D57E1931189C
:10611000325A189222302322FF062C0419FF8004E1
:1061200004D5362D210E6318FF90324E302C030A11
:10613000FFC00204DE2622110E320932100200FFD7
:1061400080001442F03223FFFE063001F6FE0028E4
:106150002300010E63F5FE46323E464001E7FE4055
:1061600046311E32E6323001DDFE40462380410ECC
:1061700072DC323232322FCEFEDE271E043C315E1C
:10618000AC621A52CB222DB2122E2AA61266FED073
:106190001001012127101001CEFE022E3295C04CB5
:1061A0000601BD30B585B0234DDA2347224C765029
:1061B00003FDF751FB000A2C0363FB0400281225A2
:1061C0001D6A042F002144121C059DFE220019495E
:1061D00068AC032C0436FA6A460521B8312C03AFAB
:1061E000FA05B030F4121D0803128C042E14EC3D95
:1061F00011044F1480F43D5F1440F03D1DDA2B1E56
:106200002630031228042E2AD00DADF44113C01EEF
:106210000820011F40201813003B3810010E40F4E5
:106220004C1D62102D1C0C10082001E042F6AF70CE
:10623000704778B24DE41E1C0506D1E1224C494C52
:1062400044035E7D6A20100506D1E22247494912C7
:106250003274121009287B092806D3E322424945EB
:1062600014326A141C03434E287B569A242DC00D09
:106270001003E4223C49401A325D1A2DBC231F2032
:10628000F8DA0D4C0390287A012868051E04680589
:106290001001287A020E32030E4F02E0CC0632685B
:1062A000222D52095207141C010700A83C101701A7
:1062B000D0103110B0011100E810400410002A681D
:1062C00069467C1C02FEF7C7FED4041F2E0320285B
:1062D0001C03FFF78EFF033E281C01287B08C42BFC
:1062E0001E06F20D1FF8B5D2181D24231DC6211D50
:1062F0004E0E10035312134913A4520BE42D9C1895
:106300001EAAB81321144201143D76211003551220
:1063100009490F143EF78C0E1E37EB2F1D863510E2
:1063200004483B7850F823701EFE4E0E2DAA261D01
:106330000C3C1DC93516FC58123C0812440412C806
:106340000412900412B8041D3227FE0D00A8132E6B
:10635000F05C24300203FDF7C4661DBA1CFD18A8CA
:10636000131C0270B4049CB4221C020526011638CA
:106370000B1C0235430560B12A3C02D013607050FB
:10638000343C07029C039D002C00D0253C342D8E0C
:10639000131D74311D3E341EDC3E34178843FE1C31
:1063A0000190009451371F2205162A1E7C182412D2
:1063B000D8181378530432631C42961C2DAC121269
:1063C000CB1A1368730422831A2D8A26411C2D943C
:1063D0002912BD1C1354930452A31C42A01C16483E
:1063E000FA8008AFFF41F2B00BCDF804B06A121486
:1063F0006A33B1FF14916232A812C15A629E14919D
:106400005212946E1FEC02662B1D52132C02E842AE
:106410006A46301B3005FEF70EFC6A46130A120965
:106420000A32140A12040A32150A2C04FFFB2068EF
:1064300050F4641A1E2064311C0380102060323E28
:1064400038232FF816210E1EAE6E031E94D8061C9C
:106450000200F091F89D161C01F08EF8F03E10023B
:10646000F08BF88106100188F8CF06100185F8A19D
:1064700006100182F8C80610017FF8A60610017CFC
:10648000F8A806100179F83F06100176F8D3063215
:1064900073421F70F8EF2D1002F06DF880061001A6
:1064A0006AF8D906100167F8F106100164F8DA06F7
:1064B000100161F8120610015EF8DB06325B66100F
:1064C0000158F820062F55F84004100152F88D06A7
:1064D00010014FF8140610014CF8A40632496C1054
:1064E0000146F8AF063243601F83F89D25315C2DCD
:1064F000AC221C020100481EFC0F1ED08E0F4C095E
:1065000000032AF7DA00BF521CFAE79A2D2005088B
:1065100026DFF8C85128FA2E406C281D5E321D7403
:10652000281E01F4331EE45E2E2F461EA6181C0101
:1065300017D0207C2031241F1028202C3126110A4E
:106540003112512E63CDFF3C1C016400E2C0126188
:106550005C336C5118D15CF21CB65CD29F5C4DCCA4
:10656000071C01B5F15044192DF4173D082D2E09D3
:10657000EC2121101803C2FF14F00F184FBEFF9E2C
:106580003C2F0025E43D6002082818DA3223B1FFD1
:10659000562FAEFF04351EAB9E031E06821C1C0147
:1065A000C0B284623D214A2D741B1E76B216236D43
:1065B0001C6C4D60213D70262E2784282D66101EF0
:1065C00048161B4004305C00282BD00A2C012038D0
:1065D0000721131C03B27F2802DB9C2A2C01006DCB
:1065E0001CF03C414C12A9602F8046F2201C020690
:1065F000280FDA8C262E10AA032C0606204243010F
:10660000EB0200361C2F405C18074DDC292FA41D1F
:10661000B2104FCEE7D8201DC9041300EC042D049E
:1066200014100768831F4078811F40880412780C7B
:10663000128C08127C081290081280081E341D3A31
:106640002DD005FF0F381248041E7C22223C037C0B
:1066500004FDF7A0822FFC0243DFF87404480436DF
:106660003EA445081DC2501C04F86846FCF74EF6CF
:10667000302D962A2DBC051DCB201D7C2A1EFC5CCE
:10668000372DC0081401FCF7B9C63005FCF767FFC9
:1066900037BDFE3A4D84041EBEC8032406D80384C9
:1066A0004240F0F880C61C01002820A0251C0F43A2
:1066B000D02AD3042865D057D306287CD06ED308BF
:1066C000521310059080C0F083800A0A12A10A10AC
:1066D0000194800C0A12B20A1001A5800E0A12C39E
:1066E0000A1001B6800F0A2C02C980BBE182041D8A
:1066F000A0231E03AD419DD8042C0290FFAEE1D62D
:106700000411043E73DA0442971E2D28061E82A24D
:1067100004C3F10014100186FF9630125030F200CD
:106720005030F2026A3050016EFF7E7A92247A1263
:106730001C7A500153FF711A92101A12081A500154
:1067400046FF641A92001A1EF8B828500139FF5704
:106750001A63EC021A2DBE3730012DFF4B1863B7B8
:10676000481612B616300122FF401672B41612B245
:1067700016300117FF351672B01612AF1630010C25
:10678000FF2A1672AD1612AB16300101FF1F1672EA
:10679000A9162DE0373001F6FE141672A6162DDE6E
:1067A000373001EBFE091672A21612A1162002E084
:1067B000FEFEE016729F16129D163001D5FEF316EE
:1067C000729B162DE0374402CAFEE8E0F0161FF077
:1067D00014013ED027F014015CD050F034016FD08A
:1067E00063F02402828075D3EE1694DA3687EE12B7
:1067F000A50A3698EE12B60A36A9EE3001BC80C45E
:106800005E72665E12645EE4069BFEB9E0814E82B3
:106810004FB6F7018FFEB6F0050093FEA3E0784E69
:10682000792CF202792C30017DFE8D6E726E6E1223
:106830006D6E300164FE8216726B1612691630019D
:1068400059FE771672491612481630014EFE6C1624
:10685000724616124416300143FE61167242161239
:106860004116300138FE5616723F162A3D0033FE9F
:106870004B16723B162A3A0033FE40167238162A1F
:10688000360033FE35167234162D4E3F30010CFEA5
:106890002A167231162A2F0033FE1F16722D162D5E
:1068A000F42D3001F6FD1416722A162A280033FD45
:1068B00009167226162A25001FFDF706091E6C5DB3
:1068C000094F6014D4042DAC0D1E18BC041E28C43E
:1068D000041C05EC801F40DC821FB91010011F4012
:1068E000E00812E40412F40C12E80812F80812ECA2
:1068F0000812FC0812F00812003012F40812040802
:1069000012F80812080812FC08120C0812005012A3
:106910001008120408121408120808121808120CA1
:1069200008121C0812100812200812140812240859
:10693000122C04121C0C1230082220142D4C0511AC
:106940000C122808223860FD0C4C051EECC82B5C8C
:1069500003EC01FCF7FA603EFF45E40194096FFF88
:106960004784061DB8041C03815FF00C0952261DE4
:106970006D081DF00F1DBC1C4C065044406840457E
:1069800016D034051D041F29AC66207C61261E1A12
:1069900040271803544810EB8CAA1C01C0FF15BAFD
:1069A0002F1E013A3BF20AB32E52492E1C03A9FFB7
:1069B0008DF8092C1B2DBC054D96031E0696031C55
:1069C0000118D00996033C071CD00DD320E03020DD
:1069D00007D605100108001A581F0360F649310E4A
:1069E000600413E043F230000E90010CE04B0E52B5
:1069F000052A4138C1CC900211D001978A1D5F1938
:106A0000200411EB80010091A42DDA081D2E26C070
:106A100001FF10E024F200202480025BFF02AA584C
:106A200053017A0C1FF90A60281C014068FD4A27AF
:106A30004C02BDE8FF87A4212C020C200C4BBE4465
:106A40002E21C4451C06431944097A2600F6001E6F
:106A5000100106F018921C01FDF71A7C441AB4B814
:106A60006AA8BC1D244F1D72071B20109418030C2C
:106A70007E0A4000801224081DEC0D1D5E0F1230AE
:106A80007E2324FF0A12310A321F0A12320A3E1AEA
:106A9000A020212410010021191012121A2F002108
:106AA000BE3D320D0A12220A32080A12270A3203A8
:106AB0000A2D803D2FFEFEFA0F6DF235160B7E1E5D
:106AC000232C371C0304283AD02C1405400851D03D
:106AD00043D307285BD066E0564396FF544392FFAA
:106AE0005230038EFF59E0011A1E892610211A1216
:106AF0008508211A500181FF4C1A527C3452781AB1
:106B0000500174FF3F4E526F34526B1A500167FFB1
:106B1000323452621A525E6850015AFF253452557F
:106B20004E52513450014DFF183452481A524434D9
:106B3000500140FF0B34523B4E52371A3E33141073
:106B40001C0904000A4908780A78521C0A74471C78
:106B50000490FBF1F201FBE3084C012804D060092A
:106B60001C0174FF02F21B1DA23E112E1E24C00E3A
:106B70001C0310B4020012921C300F05D40A01430A
:106B80004B040024B21A5508E00A01410C1D1A0AF0
:106B90003C0504234403F8042C2A45115E2C0C60A8
:106BA0001EB0F1807F01D301200EE0601E00331F74
:106BB0000F21A4331DB43E1EDABA0912361010019B
:106BC00007203506115A1DC80F20123449344802D7
:106BD00068344BB2FBF3F20A6002684FF47A730C2C
:106BE0001C074A6019220A7364228A1E2511142C7C
:106BF0000772B0FBF2F0097B4843180B1C0101BD82
:106C000026BC121C05027B891881602716251E19D7
:106C1000A63D1C237047214A936818001E4B1B6831
:106C2000190093689842F6D15268B1FBF2F1401A0C
:106C300070471A4B99680800172E3510030A0099FF
:106C400068881C115430067148431968B2FBF12260
:106C50002D9604200A154D686880470700E61976CE
:106C60001E0A58038642FBD2F1261E44541E1E05FE
:106C7000C02F2C087A700B49C9688847F5E7904403
:106C80001C0300E400E01854441DB40513E018048C
:106C90001D6C3D17E02C342D8C3C100340420F003E
:106CA0000C0CFE0868983C6DF4043E483A313C01F7
:106CB000FCF780020F1D4A31FE3302F4041C091355
:106CC000005A1E002B06D043691B081F2C030B78AB
:106CD000C36149081F5F473074102D460A1E2146C4
:106CE0000A4C04FEF70CF800950A104DFC0F4D807D
:106CF0001A2D46043210064C041100FBF7DEFC602E
:106D00000A1EFDC22A1DF2111D1A122C02FEF726C0
:106D1000F82A11121C944D28052C05B0FF624884F6
:106D20004214E0105F9062AA064C020221604814EF
:106D30000C700101905F14125D147003A1FFA6E0B6
:106D40005C30125B1C100501235A4A02215A1C3286
:106D50009330325914125814125814700389FF8E4C
:106D6000E0573012561C10050223554A0321551CCA
:106D7000327B30325414125314125314700371FFC7
:106D800076E0523032511C12504C12501C3263309B
:106D9000324F14124E142D7E3F700359FF5EE04DAA
:106DA00030324C7C10034B4A01214B1C324B3032A9
:106DB0004A14124914124914700341FF46E0483046
:106DC00032471C12464C12461C32333032451412E4
:106DD00044142D7408700329FF2EE043304D7A08C7
:106DE00012411C2D7A08321B30324014123F14120B
:106DF0003F14100311FF16E00F30321330323C1CE9
:106E0000123B1C123B1C320330323A14123914125A
:106E100039141C03F9FE13BDFC4C057EF00C082D43
:106E200060203E1AFC075EF00C082D14082DC412D9
:106E30002DE4074F2C85E8072DF8074F3085FC0718
:106E40002D94202E50A8071110126010124C0C1215
:106E50003C0C225C1C1DAC201270101240101280E1
:106E600010126C0C12440C227C1C1D101312A0106A
:106E700012481012B010129C0C124C0C22AC1C1DAB
:106E8000E02012B86412501012C88012B40C1254D0
:106E90000C22C48C1DF82012E82C12581012F82C69
:106EA00012E40C125C0C12F40C12C00C12600C12E6
:106EB000D00C12BC0C12640C12CC0C3C1710B41089
:106EC000F007033F4C22684FF6FF010A403D49514D
:106ED000EA03210A4322CE451C02000081B0AC0621
:106EE0002E91A20F1E896016230BD00E2C14009930
:106EF00044F620629142F3D200BF0099491C0091F0
:106F0000F5E701B008081C13F0418EB0FBF798FBC1
:106F1000FBF70DFD00F0A0F8FBF786FB05FE042C47
:106F200001CCFF28E0481E47A04513FC07101FE9CD
:106F3000FC7C431FFCFE2C153C03234D47F6123C02
:106F4000111C035AFE684621FA391C03026001A88D
:106F5000202E381D50101FFC1052371F05AE802BFD
:106F60001C03F00BFC002614211C09FC0027802FB9
:106F7000FCDAE84688F8801F1F2088A80D4C0C9882
:106F8000F80120154909A800F0FBFF09AA5A071CBF
:106F90000274F8032252131156300723FEC8202131
:106FA000698847002C61165218161C027F1CD7E70F
:106FB0002A071D74042C020000FA055C0425E81E53
:106FC000381122123C04FF074C15AC0E4D0C2A3C24
:106FD0000531493248FCF74CCA30FE19300C2AFD05
:106FE0001C5A096FFC41EE122802194C194DA84F8A
:106FF0000095F6032DD2159C03D9FF154E16FC0BF8
:107000003E02E80B2ECEB0121E087612A2802C3360
:10701000D1FF1291281EC860081FF381F00A11E801
:107020005F54150C43DDE80A25D44D22242E1F564B
:107030003A1E58C13A2C01D0287B104D1E3AB22C72
:107040001F15F1BB3F2C03F020F98046D6344F00CA
:10705000B2FC391C01F04107072A11512E2F54248C
:107060001EE7EC241E90880A1E90880A3EB6D40FB4
:107070002DBE142C024FF43A726C414001FCF7AC67
:10708000143DAE3A2FE92220363001FCF7A2141F3E
:10709000B846161A4E40C4141003EE225349561A2D
:1070A00032951A1E2B2A25234146D653AFFF743D35
:1070B000820A8DF83A1C010A324700168C02FCF74E
:1070C0007DF8081510030F32424948143273141E1C
:1070D0002764273E1030111C03BA464A4641502708
:1070E0002C0600F0D8FA287A3873E415300306D15C
:1070F000E96817DE1E7A641A1EFF244E31DE4E87C1
:10710000DE2D430C00661C01A6322D72079001FC97
:10711000F74A661003A73228492914324014232E57
:10712000006832046872A2681C01A4FA7058171C27
:107130000170603EB807F101561C01D93218811F59
:107140009001FCF71F561003DA3213491714721519
:10715000561E306824F0060102D043F222500CE0A3
:1071600062700173FA375E8D7E2C4DFA2B1E2E2C29
:107170000A16A89F129C0412E00412E8042AF0ECFC
:1071800011041E04C50B120C042FF8B5DA3E1D4C79
:10719000171D3A171C018A222C1A254002FBF7D72B
:1071A000FF90100306D18B2227E41AFB6A618E1D23
:1071B0007C2D2C0190307A2A0B1270061609372D7F
:1071C0008E0B2003307B8DF80BAA1390B0101E0C91
:1071D000F4062D5A26432BFCBA2F21500017DC0150
:1071E00005B0F0D8161C010D12108A2C6802FBF7AE
:1071F0009FFF1A10054FF487720B490D149795FFE6
:10720000D010021206490914328B144DD816216091
:1072100010036CFCF2BD2CC4121C04126404127422
:1072200004127C04400400480047B1340852E508C9
:1072300043193508524D0852810852B50852ED08DD
:107240004321360852530852830852B30852E308C8
:1072500043113708523F08526D08529B0820021B09
:107260002F00600843B1411052C50852D50852E5BD
:107270000852F508438B3C0852970852A30852AFB6
:1072800008430D3D08523108525508C3793D70F14D
:107290002F08433F3A50437D4C08F3018F4C601C4C
:1072A0000913F0004C03D55B4252426300261C11C7
:1072B0009CEA210C00F0178010B5644603D34942C4
:1072C0004042619110700500F00EF86400041083D4
:1072D0002442322D040A2C10BBBBE1B1B2F5803F31
:1072E00080F07E80022A1ED98C46760A1C1002FB92
:1072F00011C31B0443EA1043B3FBF2FC02FB1C3333
:10730000CE2A23EA030E1C05F002FB103240EAEEFF
:107310000C4008237047022A05D98446B0161C0683
:10732000C270474AB105D10040451C0249085FEAD6
:10733000CC311A472311262C0300F006BD0B025551
:107340001D2C0610097047904271EB030CF6D3B365
:1073500076102B2FD2F0B5B3FA83F7B1FA81F4A7E8
:10736000F10F0E3D1B5340CEF1200602FA0EF2F350
:10737000415340B5F10F0746D80F3C2C444140C45F
:10738000181C1EA040F1414140B1FBF3F603FB166F
:1073900011A2FB0645001BA94102D2761E80185996
:1073A0004180EA9C371002FA0EF3623E1008002179
:1073B0005A403046F0BD30B42E1002FC03FB1C2EA8
:1073C000320C2E200403D2ACF1010C301C0530BC71
:1073D00002460B466032581C017047B2F60B30056E
:1073E00065D3F0B5B2FA828E3011C7F10F063D1B9E
:1073F00022FA06F307F1110EF24120355A8ED3B866
:10740000D98AD15C52BC5CA00A0F2F12D30F3FC99E
:107410000341EA5041B08002D4EBC030B2100746BD
:10742000EACC3C07B34140C752F214B8DC112A221F
:1074300004E0600C0CFA07F05A402CFA04F13043D7
:10744000F0BD1E1D7B61111C940460465A40F0BDC6
:10745000CA1602CA6663CAF0041E1B024CEA002068
:107460001222321025CC1C0862F30F2262F31F4255
:1074700040188A1C101D0308D0C91A1FD3DB074807
:10748000BF00F8012D28BF20F8022D130030B414DE
:107490004615461039102005E93C00FAD849070A7C
:1074A00040080C0048BF40F8042D89002841342DC5
:1074B00076073001C918180C12CB2821082D0809AD
:1074C0001C0662B38B0708D0521E2454123B1414BE
:1074D000133B00F024808B07F6D1830740F0208017
:1074E00000BF103A07D3DC1004E83810103AA006A9
:1074F000100BF9D230BC530724BFB1E80810A00428
:10750000100444BF51F8043B70133BD216100231F3
:10751000F8022B741C042B44BF0B7803BA1C1C0309
:10752000121F17D35B1F282124111820033B1B0CAB
:10753000121F082002F6D20BE0142172631B0A1AF4
:10754000210E6008F3D238BF121D521E24BF9223B1
:10755000F8D8A82411C1F30A5340F2FE329B1A2432
:10756000DDCA17C902D3F120F41C2A5141F00041B1
:1075700004DDD940881850401146704720330CDD97
:10758000C002C3F1200C01FA0CFCD940D840604481
:1075900080185141504051F4521DDE081006301B36
:1075A0001803D0D04380382D1A4529941401CB17E5
:1075B000C0FA180658405940DB07A1B1961808F2E6
:1075C00041409040C2F12002D12A101502F21D4222
:1075D00043EA025CC30A420572F1004253EB415098
:1075E0004CEBD138201650B1B0FA80F29040C4F282
:1075F000D011A1EB025202EBD02119434005B01C7F
:10760000010246F4AE06200C04F882ED001B604730
:1076100000BF30EE101BC41C1CA3F57C730E3BCCCA
:10762000BFD3F1350027E0B3F1150012DA6FF00097
:10763000000B33D84021EA6E1610082043EC110BE2
:1076400030EE410B01A211361E0B98321106137059
:1076500047261C0103C3406028F002060B984341F3
:107660002420040020352BBEBF1621221F0AE0CCA7
:10767000281E1BC01F1F13138234529C1831281D53
:1076800054282FB04CFA291C06B0EE418B51EC184F
:107690000B064D2C03410FBF002880296D7A251F52
:1076A00082B070071E825A2930024BB4EE44122376
:1076B00008D12C1C0648004015401C02D18C2A50D1
:1076C00004F0638251EC1012200200F06B810E2155
:1076D0004C12084C111E828130300100F05C0E1CEF
:1076E000064B0043EAD073420008291C06BF002A5B
:1076F000B0EE489B19421314093344A4EB5352359E
:107700002A04DB000E21AA2C0C0CE0202A03DD2029
:107710003AD140914000E0101F140503E0002AC454
:10772000BFD09C1E41CC29216A2006C80F1CBFB4C3
:10773000EE498B9C2F05D02E07100B02B09FED74E5
:107740000B1BE253EC102B23461003B1F5801F22D4
:10775000522F09D24707319614029212D0689C1C0E
:107760000126FC0EF2451F4844F41C2C077404EB60
:10777000115000903B40C43B4008924643EA000B46
:107780004BEC10AB62200431D021F00040501001CE
:10779000034643062D482AE1C423491BC4F21E3484
:1077A000C41E11C42A23419BBC111A1224201C029E
:1077B0002400980100589C019FEDBFFE2616B08062
:1077C000170020981F1B20FE2A2F17E0482B1402B9
:1077D0009FEDC16BBA1C083B00EE063BBDEEC33B00
:1077E00013AC2A1001203802061E12802A1A046CDB
:1077F0001808BAEECD4B34EE011B4001281D1A2BA0
:107800001C01010B82082B200220EE003B3C1C0DCA
:107810009FEDC27B03EE067B9FEDBAAB07EE03EA5A
:107820002B100BBACB0AEE03CB9FEDB06B0CEE0323
:10783000201003B07B06EE032032B02010022AEEA7
:10784000033B821C04CB33EE423B3C824611941333
:107850006B017C1007A349794401F52271235C1068
:10786000010A1832061E9DA446100F92ED002BB897
:10787000EEC11B31EE022B9FEDAF4BB03610050071
:10788000EE043B23EE08BA2004AD6BB4EE461BDCDD
:1078900014044AD49FEDAC9BC0310E140140DA5160
:1078A000121EC8D6401DF62B400C4B31EE041BBDFA
:1078B000EEC13B0AE000BFFF01127FFA200F6B31DF
:1078C000EE065BBDEEC53B92ED025B92ED046BFAFA
:1078D000100135EE06B2100B9B4B20EE080B26EE86
:1078E000086B22EE08801401C33B0630240232EEFE
:1078F000432B3C12020C240200F078F9D418022029
:10790000F00002A41A430E48012A08D09E1A06CE9F
:1079100016047A1C06930B01E09FED8D0BAC0C1B3B
:10792000F0F74E2D6A2C8BF4E0E429F6880240F043
:10793000EA80D81205121B18BFC81C080B40F0DEE5
:107940008053EC182B5910111C0B4915491C55D0AC
:107950005D0045EAD275546F03116C3A2CE81008AB
:1079600041A1EB5554352C04DB0286120386192401
:107970001A2C2448023CE340A3241A22241C052C80
:10798000C4BFE240A2400C04190A3A41E01DBC0504
:10799000132053108154197C1A2C063A2B7CF11EAB
:1079A000581802122B30B164357A120C5A12015C4D
:1079B0001210BA21B83C0708D11A0306D1DA0F1FFA
:1079C000EE034004C80F4ED040E0D8211E121A1E0C
:1079D000EF18D160039E1760033E156003300176F7
:1079E000FA11362C0EDA0F25D000B303E0D0B9DA45
:1079F0000F20D1D8B1A2034C04320B4AE0334C76AD
:107A00000341641C010098070E2F1F19DC96141CFB
:107A100007BFCD3B7F669EA0E63F6E1437DC107C2F
:107A20002002C80FE0E7383003270B2EE038425C15
:107A300001270B29102A235040102018250B21E084
:107A4000C490FFFF4AE98A942449D23FF75F97998F
:107A50009999D93FBC55011820E53F62CB68D96F91
:107A600046C73FC6C912DAC471CC3FF7DE29BFD87A
:107A7000F8C23FF4B3FECC1A99C33F244C030B0267
:107A8000B000BF7E2D1C03B08CFFFF0F746B40084D
:107A9000E03FFE822B654715F73F6C4FE0C06C61FD
:107AA0005007E040EF39FAFE422EE6181D7804B088
:107AB00002FCFFFF000152F0101DB7261C25F1014A
:107AC00003810704D010F8011B820781B1FAD102AB
:107AD00068A2F10131914311F0803104BF50F804E4
:107AE0002FF6E709BA7A061C02F100EBD14C3A1ED8
:107AF000C06C141DB00C1C1BB430B583B00A460614
:107B0000A90291044600250194009502AB01A90841
:107B10004878441E3078271C1AFA019A15700028FC
:107B20004EBF04460198041B204603B030BC5DF8EC
:107B30000CFB00BF09180C214487F8B5D858052D57
:107B4000ED089B21D033FA2B1CD04E411A72161629
:107B50003C0711D09FEDB33BB4EE437E04200640BA
:107B6000F1AA809FEDB10B2A195480074155EC1002
:107B70004B0D46B5E0541A020E800240F048814C8D
:107B80001201121A532063112B548F08D140031E87
